:020000040800F2
:10000000000002202D950208D9940208DB94020812
:10001000DD940208DF940208E19402080000000069
:10002000000000000000000000000000E39402084F
:10003000E594020800000000E7940208E994020831
:100040007D9502087D9502087D9502087D95020840
:100050007D9502087D9502087D9502087D95020830
:100060007D9502087D9502087D9502087D95020820
:100070007D9502087D9502087D9502087D95020810
:100080007D9502087D9502087D9502087D95020800
:100090007D9502087D9502087D9502087D950208F0
:1000A0007D9502087D9502087D9502087D950208E0
:1000B0007D9502087D9502087D9502087D950208D0
:1000C0007D9502087D9502087D950208F994020845
:1000D0007D9502087D9502087D9502087D950208B0
:1000E0007D9502087D9502087D9502087D950208A0
:1000F0007D9502087D9502087D9502087D95020890
:100100007D9502087D9502087D9502087D9502087F
:100110007D9502087D9502087D9502087D9502086F
:100120007D9502087D9502087D95020809950208D3
:100130007D9502087D9502087D9502087D9502084F
:100140007D9502087D9502087D9502087D9502083F
:100150007D9502087D9502087D9502087D9502082F
:100160007D9502087D9502087D9502087D9502081F
:100170007D9502087D9502087D950208000000002B
:080180007D9502087D9502083F
:1001880010F8012B11F8013B012A28BF9A42F7D039
:10019800D01A7047034613F8012B002AFBD1181A0E
:1001A8000138704753B94AB9002908BF00281CBF55
:1001B8004FF0FF314FF0FF3000F00CB8ADF1080CF4
:1001C8006DE904CE29F00CFADDF804E0DDE902233C
:1001D80004B07047704700BF10B5054C237833B999
:1001E800044B13B10448AFF300800123237010BD02
:1001F8009C00002000000000A498020808B5034BEA
:100208001BB103490348AFF3008008BD000000009C
:10021800A0000020A4980208F8B51546B1F90630E8
:10022800B1F90270DE1B0136B1F90420B1F9000002
:10023800141A01349BB292B2B9B280B227F0C1FD50
:100248000F4F00220421384628F0D4FA0122022157
:10025800384628F0CFFA14FB06F46400A2B2294607
:10026800084828F0DBFF074B9B6C93F83530DBB26E
:10027800012BF8D101220421014828F0BBFAF8BD6E
:1002880000000240F089002008B527F0C9FD08BD2C
:1002980038B5FFF7F9FF0C4D4FF4C8530B4A0C491A
:1002A800284612F037FF0B4C204612F009FF4FF496
:1002B800A0732380F0236380074B6361E5602046C9
:1002C80012F036FF38BD00BFB8640020B800002027
:1002D800B8320020D46400202102000808B5024882
:1002E80013F00DF808BD00BFD464002000B583B03A
:1002F80000210191094B1A6B42F480021A631B6BAF
:1003080003F480030193019B0A463B2027F032FF48
:100318003B2027F03FFF03B05DF804FB00380240A4
:100328002DE9F04F8DB000240794089409940A949D
:100338000B940194794B1A6B42F010021A631A6BF2
:1003480002F010020192019A02941A6B42F0040220
:100358001A631A6B02F004020292029A03941A6B4F
:1003680042F080021A631A6B02F080020392039A29
:1003780004941A6B42F001021A631A6B02F001022C
:100388000492049A05941A6B42F002021A631A6BDB
:1003980002F002020592059A06941A6B42F00802CE
:1003A8001A631B6B03F008030693069B5C4F2246F7
:1003B8000821384628F01EFADFF86C910122114610
:1003C800484628F017FADFF864B122464FF21001C8
:1003D800584628F00FFA22460A21384628F00AFA29
:1003E800504E01220421304628F004FA0A230793CC
:1003F8000125089509940A9407A9304628F004F9BC
:100408004FF0040ACDF81CA0089509940A9407A98E
:10041800304628F0F9F84FF00808CDF81C80089508
:1004280009940A9407A9384628F0EEF80795089524
:1004380009940A9407A9484628F0E6F8CDF81C80E4
:100448004FF00208CDF8208009940A9405230B93F5
:1004580007A9484628F0D8F807954FF49013089351
:10046800099407A9304628F0CFF8CDF81CA00894C5
:100478000994A9F5806907A9484628F0C5F84FF4FA
:1004880080630793CDF8208009940A9405230B9381
:1004980007A9484628F0B8F84FF2100307930895C3
:1004A80009940A9407A9584628F0AEF84FF4007347
:1004B80007930894099407A9304628F0A5F84FF443
:1004C800E0530793CDF8208009940A940A230B93EC
:1004D80007A9304628F098F8202307930894099430
:1004E80007A9584628F090F84FF410730793122381
:1004F800089309950A94CDF82CA007A9484628F036
:1005080083F8CDF81C804FF490130893099407A939
:10051800384628F079F80DB0BDE8F08F0038024071
:10052800001002400000024000080240000C024097
:1005380008B5084B01221A70074816F00EF820B1CA
:10054800064B186826F05FFA08BD044B186826F0B9
:1005580055FAF9E7296500203C6800202465002049
:1005680010B5044690F8423013F0020309D1B0F8F0
:10057800402032B14FF6FF718A4202D0013AA0F80A
:100588004020B4F84020A2B9A26B02B18BB1214639
:10059800154816F024F8FFF7CBFFE3680BB12046A7
:1005A800984723690BB120469847204616F0CEF9A4
:1005B80018E0E26B52422263A26B9AB113B9616BE5
:1005C80049422163B3FA83F35B0994F8421063F359
:1005D800410184F84210236AA16A2162A362E36A96
:1005E800E262A36310BD00BF3C68002038B53B4BF6
:1005F800186812F0C5FE0546394A137883F00103DE
:100608001370384815F0A9FF044625E000293FDBA0
:1006180012F0010F09D163693BB120469847236A5C
:1006280003442362A36A0344A362A3680BB1204670
:10063800984794F8423043F0080384F8423027E0A2
:10064800226BE36A9A423ADA274B1B78002B3AD09E
:10065800244815F082FF0446002C3AD0224B002291
:100668001A7094F84230C3F380031D4A12789342FB
:10067800EAD094F8423062F3820384F84230236B64
:10068800591994F8422012F0080F01D1002BBDDD52
:10069800236B2B442363002BD6DBE26A934200DDF5
:1006A8002263E36920469847636A8342C8D0606240
:1006B8006368002BC4D0014620689847C0E72046ED
:1006C800FFF74EFFC0E72146064815F04EFF0446E7
:1006D800C2E712F047FE014B186038BD2C650020B8
:1006E800286500203C6800202965002010B582B0EC
:1006F80004464FF4806300930023C26A1946006BD6
:1007080016F0C1F8A36A226A9B1A03FB00F002EBF9
:10071800A02002B010BD000008B54421074815F01C
:10072800D6FE00221E21064826F06AF8054B1860FE
:10073800FFF7FEFE044B00221A7008BD3C6800203B
:10074800F5050008246500202965002010B5044639
:10075800442116F0B3FA4FF4FA73E36200232362DC
:100768006423A3620123A4F84030044BE36194F8A6
:10077800423043F0010384F8423010BDF50600080A
:100788002DE9F04106460F46154815F0E6FE0446E9
:100798004FF0000804E06368BB420DD067B12C46F7
:1007A800D4B121460E4815F0E0FE05462368B34251
:1007B800F1D0002EF3D1EEE72146094815F00FFFDE
:1007C80023690BB120469847204616F0BFF8FFF77B
:1007D800AFFE4FF00108E2E74046BDE8F08100BFF8
:1007E8003C68002038B50446416811B10068FFF73D
:1007F800C7FF1C4815F05BFF58BB1A4815F06FFE81
:10080800054658B34422214616F06AF92368A342E4
:1008180025D095F84230144A127862F3820385F89D
:100828004230DBB213F0010F0FD06B693BB12846A1
:1008380098472B6A03442B62AB6A0344AB626B682C
:100848001BB1286808B1296A9847FFF771FE284646
:1008580038BD12F087FD054B1860CEE7FEE72D6026
:10086800D7E700BF3C680020286500202C650020E1
:1008780038B504460D460A4815F06FFE014603E0F8
:10088800074815F072FE014639B10B68A342F7D14B
:100898004B68AB4201D0002DF2D1084638BD00BFED
:1008A8003C6800200346891A0029B8BF49424FF422
:1008B8007A7202FB01F1B1FBF0F0994200D20130EB
:1008C800704730B583B004464FF480650095002327
:1008D800C26A1946006B15F0D6FF009540F2B63390
:1008E8004FF46172002115F02DFFA36A226A9B1A4A
:1008F80003FB00F002EBA02003B030BD30B583B09D
:1009080004464FF4806500950023C26A1946006BBF
:1009180015F0B9FF00954FF46E733222002115F0DF
:1009280011FFA36A226A9B1A03FB00F002EBA020C6
:1009380003B030BD026BC36A9A4201DB806A70471C
:10094800006A7047828C90F8343013F0060304D1A3
:10095800038D13449AB210B27047042B21D0022B96
:10096800F9D110B5818DB0F92C40438D994202D24E
:1009780001F5B4710CB2B0F828C0B0F928E0C18C08
:100988008C4503D20CF5B47E0FFA8EFE234403EB9C
:10099800D3735810B1EB630F07DA11448AB210B25F
:1009A80010BDC38C13449AB2D5E7864503DD944441
:1009B8001FFA8CF2F3E7104482B2F0E700B5B0F802
:1009C8002AE0838D9E4503D2F4468E4505D906E07C
:1009D800CEF5B47E73444FF0000C8B4229D2944577
:1009E80042D0944506D3C2F5B47E8E4502D8B1F5FF
:1009F800B47F4DD9944508D2ACEB020E0EF5B47E07
:100A08008E4502D8B1F5B47F4FD91A44B2F5B47FF8
:100A180004D88C449C4501D3624553D2B2F5B47FC7
:100A28006AD9A2F5B4728A4268D38B4257D30020A0
:100A380011E0A3EB0C03B1EB530F0ED890F8343050
:100A480043F0080380F8343090F8343043F0100352
:100A580080F8343001205DF804FB90F8343023F03E
:100A6800080380F83430EFE7A2EB0C0EAEEB030E70
:100A78001EF5B47FB5D090F8343043F0080380F801
:100A88003430DBB243F0100380F834300120E2E761
:100A980090F8343043F0080380F83430DBB223F0A8
:100AA800100380F834300120D5E790F8343043F053
:100AB800080380F83430DBB223F0100380F83430B8
:100AC8000120C8E790F8343023F0080380F8343068
:100AD800DBB223F0100380F834300120BBE790F834
:100AE800343023F0080380F83430DBB223F01003ED
:100AF80080F834300120AEE70020ACE70020AAE7F8
:100B08002DE9F04F83B004460E4617461222002105
:100B18001BF0ECFD01900FFA80FB13220021204608
:100B28001BF0E4FD0FFA80F91022002120461BF08B
:100B3800DDFD00900FFA80FA1122002120461BF0FB
:100B4800D5FD0FFA80F8204618F0BEFDA0EB0B0586
:100B5800A5EB0905204618F0BEFDA0EB0A00A0EBA6
:100B6800080085421CDA204618F0AEFDA0EB0B0306
:100B7800A3EB090303EBD37343F34F03A18A9AB2A0
:100B88001144019810FA81F13180E18A0A440099F0
:100B980011FA82F2728007B13B8003B0BDE8F08F92
:100BA800204618F098FDA0EB0A03A3EB080303EB1B
:100BB800D37343F34F03E1E770B5054640224FF482
:100BC80040311BF093FD044643224FF44031284640
:100BD8001BF08CFD14FA80F4A4B241224FF440318A
:100BE80028461BF083FD00B200282EDD41224FF479
:100BF800403128461BF07AFD00B20444A4B24222D8
:100C08004FF4403128461BF071FD00B2002825DD65
:100C180042224FF4403128461BF068FD00B20444DC
:100C280024B235224FF4403128461BF05FFD0646BA
:100C380038224FF4403128461BF058FD16FA80F050
:100C480000B2A042B8BF204670BD41224FF44031E7
:100C580028461BF04BFD00B24042CEE742224FF43B
:100C6800403128461BF042FD00B24042D7E72DE94B
:100C7800F04F83B0074689461446984650224FF4F1
:100C880000311BF033FDC0F3C03303FA80F0C0F32A
:100C98004F06A41B24B23846FFF754FE82465A304A
:100CA80000B215F011FD00FB04F5ED13504615F0E8
:100CB8000BFD00FB04F4E41312224FF440313846D4
:100CC8001BF014FD834613224FF4403138461BF0C5
:100CD8000DFD824610224FF4403138461BF006FDC8
:100CE800019011224FF4403138461BF0FFFCB9F84F
:100CF8000030ADB22B449BB2A3EB0B039BB29B1B02
:100D0800A8F80030B9F800301D441AFA85F516FA2B
:100D180085F5A8F80450B9F80230A4B223449BB270
:100D2800019A9B1A9BB29B1BA8F80230B9F80230B3
:100D38001C4410FA84F416FA84F4A8F8064003B0A8
:100D4800BDE8F08F2DE9F041AAB005460FF0E2FFAB
:100D58000446284610F056F806460DF1A20229A9C5
:100D68002046FFF7CDFE314616A818F0ACFABDF9BB
:100D7800A230002B59DC12224FF4003120461BF020
:100D8800B5FC07B213224FF4003120461BF0AEFC2D
:100D980005B210224FF4003120461BF0A7FC0FFAD1
:100DA80080F811224FF4003120461BF09FFC03B25B
:100DB8004345B8BF4346BD42B8BF3D46AB42B8BF46
:100DC8002B469BB2BDF8A250ED1A2DB2002D5DDC6A
:100DD80010AF3B46BDF9A22029A92046FFF747FFDF
:100DE80002AD284608F030FF2A464FF4403120462D
:100DF80017F064FF4FF440332393404B17930223BB
:100E0800189319971A9516AA1A2120460FF058FF19
:100E18003A462946304608F059FF16AA1B212046B3
:100E28000FF04EFF2AB0BDE8F08112AD284606F05B
:100E38003DFC2A460021204618F08FF90023239311
:100E48002E4A1792189329AF1F97BDF8A230ADF814
:100E580094301E9516AA1A2120460FF031FFBDF9CD
:100E68009430628DA08CA18D014489B20191024415
:100E780092B200929BB23A462946304606F02BFCC5
:100E880016AA1B2120460FF01BFF74E712AF384645
:100E980006F00CFC3A464FF40031204618F05DF994
:100EA8004FF400332393154B17930123189329AB61
:100EB8001F93ADF894501E9716AA1A2120460FF0DA
:100EC800FFFEBDF94A20BDF994309A4201DDADF824
:100ED8004A30E28CA08C218D014489B201910244F0
:100EE80092B200929BB229AA12A9304606F0F3FBEF
:100EF80016AA1B2120460FF0E3FE69E7D4980208E2
:100F080038B50C4600258D8487234B852D228A858C
:100F1800CB844FF487730B8591F8343065F3420323
:100F280081F834304FF40043CB8591F8343043F0E6
:100F3800080381F834300D8664234B8691F83430E9
:100F480065F3000381F834304FF434738B6312F087
:100F580009FAE063B4F92830A4F8403094F8343042
:100F680065F3041384F834300221204617F0C4FCDA
:100F78004FF44471204617F02FFA0D21204619F03E
:100F8800DFF938BD2DE9F04188B006460C46154614
:100F98001F4619F0A9F9002847D0AC4245D0B4F54E
:100FA800B47F02D9A4F5B474A4B2B5F5B47F02D95C
:100FB800A5F5B475ADB2B28C1444A4B22A441FFA94
:100FC80082F8B4F5B47F02D9A4F5B474A4B2B8F524
:100FD800B47F03D9A8F5B4721FFA82F80DF11E0286
:100FE80006A93046FFF78CFD5022394630461BF0E3
:100FF8007DFB05B25122394630461BF077FB00389D
:1010080018BF012004AF039702900195CDF8008026
:101018002346BDF81E20BDF91A10BDF9180006F0C8
:1010280071FB3946304618F012FF08B0BDE8F08170
:1010380010B584B004460DF10A0203A9FFF760FD5C
:101048006B46BDF90A2003A92046FFF710FE20468B
:10105800FFF7B2FD011E05DC6946204618F0F7FED1
:1010680004B010BD0A46684600F0A2FCF4E738B5A3
:1010780004460D46B1F5B47F02D9A1F5B475ADB2F9
:10108800238DE18C5A1A1FFA82FC12B25B1B98B2AC
:101098001BB2002A13DB002B16DB981A0028B8BFF6
:1010A8004042B42814DC9A421DDC9A4213DA4FF409
:1010B80000330A4629462046FFF764FF0BE00CF58B
:1010C800B47C0FFA8CF2E6E700F5B47003B2E4E7FB
:1010D800204618F0E4FE2046FFF7AAFFE5842046E4
:1010E800FFF7A6FF38BD4FF400332A462046FFF726
:1010F80049FFF0E738B504460D46B1F5B47F02D98B
:10110800A1F5B475ADB2218DE38CCA1A1FFA82FC21
:1011180012B2EB1A98B21BB2002A12DB002B15DBB5
:10112800981A0028B8BF4042B42813DC9A421CDC45
:101138009A4212DA4FF400332A462046FFF722FF7C
:101148000BE00CF5B47C0FFA8CF2E7E700F5B4700D
:1011580003B2E5E7204618F0A2FE2046FFF768FF35
:1011680025852046FFF764FF38BD4FF400330A4653
:1011780029462046FFF706FFEFE738B504460D4637
:101188001146FFF7B7FF29462046FFF770FF38BD25
:10119800F0B583B00446B0F92E0010F5004F61D0C9
:1011A800A28DB4F92C30658DAA4202D202F5B47230
:1011B80013B294F83420C2F34102012A12D0022A51
:1011C80041D0002A4ED100932B46B4F93220B4F90D
:1011D800301015F058FB05B282B2618D2046FFF73A
:1011E800CCFF3DE0EA1802EBD272561042F34F07EB
:1011F800B4F93010B4F9322001EB020C0CEBDC7CB2
:101208004CF34F0C60450EDA00972B46624615F0FA
:101218003AFB05B281B22046FFF729FFB1B220465A
:10122800FFF768FF1CE000933B46614615F02BFB77
:10123800074605B2B1B22046FFF719FFB9B22046FA
:10124800FFF758FF0CE00095B4F93220B4F93010DC
:1012580015F019FB05B2A28D81B22046FFF78DFF6C
:10126800A4F8405003B0F0BD38B505460C46B1F5BA
:10127800B47F02D9A1F5B474A4B2AB8D698D5A1AA2
:101288001FFA82FC12B21B1B98B21BB2002A12DB97
:10129800002B15DB981A0028B8BF4042B42813DC8D
:1012A8009A4219DC9A4212DA00230A462146284655
:1012B800FFF768FE0BE00CF5B47C0FFA8CF2E7E759
:1012C80000F5B47003B2E5E7284618F0E8FD6C8530
:1012D8002846FFF75DFF38BD002322462846FFF762
:1012E80051FEF4E738B505460C46B1F5B47F02D98E
:1012F800A1F5B474A4B2A98D6B8DCA1A1FFA82FC29
:1013080012B2E31A98B21BB2002A11DB002B14DBCD
:10131800981A0028B8BF4042B42812DC9A4218DC58
:101328009A4211DA002322462846FFF72BFE0BE0EB
:101338000CF5B47C0FFA8CF2E8E700F5B47003B250
:10134800E6E7284618F0ABFDAC852846FFF720FFF6
:1013580038BD00230A4621462846FFF713FEF3E767
:1013680038B504460D461146FFF7BCFF294620460E
:10137800FFF77AFF38BD08B5818418F090FD08BDE5
:10138800B0F92EC08C4510D008B5B0F932208A4289
:10139800A8BF0A46B0F930309342B8BF13469C45FF
:1013A80002D0C385FFF7F4FE08BD7047B0F92E00E0
:1013B800704700002DE9F04786B00C46CE480FF084
:1013C800D5FB012802D006B0BDE8F08720460FF013
:1013D800A5FC054620460FF09DFC064620460FF06A
:1013E80099FC0746AB1E132BEDD801A252F823F047
:1013F8004914000843170008CF130008CF1300084A
:10140800CF130008CF13000843170008CF130008B4
:10141800CF130008CF130008CF1300087B1700086C
:10142800CF130008CF130008CF130008D117000806
:10143800CF13000865180008CF1300082519000805
:1014480013F092F904460028BDD013F093F901284F
:10145800B9D103A9204613F0FEF90DF10A0204A937
:101468003046FFF74DFBBDF80C30BDF810209B1A35
:10147800ADF80C30BDF80E30BDF812209B1AADF84F
:101488000E3097F8343013F0010F00F0B58097F85C
:10149800343013F0010F96D0BDF90C1019B9BDF90D
:1014A8000E30002B8FD0BB8DB7F92C507A8D93421C
:1014B80002D203F5B4731DB2BDF90E0015F06BF935
:1014C800BB8CC41AA4B27B8DE41AA3B224B2002C3C
:1014D800C0F2DB80BDF90A804FF41D7303FB08F8E6
:1014E800864BA3FB08384FEA5818002011F0F8FE85
:1014F800322300FB03F35033B3F5A07F80F0C9809B
:101508004FF4B47297F83490C9F3C009B2FBF8F2FB
:1015180021463046FFF752FA00283FF454AF1FFA2D
:1015280085FC798DACEB010000B2B7F84030A3EB35
:1015380001081FFA88F8CB1A9BB21A1912B2002AAE
:10154800B8BF524292B2B2F58C7F40F2B28097F89F
:10155800341011F0080F00F0B9800024B9F1000F21
:1015680040F0B880B9F1000F06D197F8342002F0A6
:101578001802082A00F0BE8023441CB2F86B11F050
:10158800FFFEBB6B00FB03F35D4AA2FB03239A0932
:10159800C3F38F139C4240F3B78014B208EB0400E6
:1015A800798D6A1AD200B7F93240B7F93030A4EB16
:1015B800030C92FBFCF20432121112FA80F011FAB9
:1015C80080F0B7F92E8000942A4600B215F05BF936
:1015D80004B23046FFF7EAFEA04240F09B80B7F91C
:1015E8003030A34204D0B7F93230A3427FF4EBAED7
:1015F80011F0B8FEF863E6E650224FF400313046A9
:101608001BF074F805B284B2BDF80A301B1BADF8A4
:101618000A304FF48031304616F035FF08B3BDF874
:101628000A301B1BADF80A30BDF90A30002B28DD43
:10163800BDF90C30BDF90E2002FB02F203FB0322B8
:10164800BDF90A3003FB03F39A427FF720AF97F8FE
:10165800343043F0010387F8343011F083FEF86327
:1016680015E7BDF90A201346002A08DB9B10AB4298
:10167800B8BF2B469BB2D21AADF80A20D4E7D31CC8
:10168800F4E70123ADF80A30D2E703F5B4731CB2CE
:1016980020E7002011F024FE322303FB00F2503231
:1016A800184BA3FB0232D2094FF4B47303FB02F2C6
:1016B80028E797F834E01EF0100F7FF44FAF1EF0C4
:1016C800080F05D0A1EB0C010CB247E7044645E72B
:1016D800044643E797F8341011F0080F7FF442AF3F
:1016E80011F0100F7FF43EAFB2F58C7F7FF63AAF62
:1016F800002441E704463FE7D49802081F85EB51D0
:10170800D34D6210CDCCCCCC5A429442BFF646AFF2
:1017180014B243E711F026FEF86321463046FFF77E
:101728002FFEA0453FF45BAF00221C2130460FF08E
:10173800C7FA01287FF447AE51E790F8343023F018
:10174800010380F83430304616F0B1FE054611F03A
:10175800AFFC044613F008F813F00CF804287FF4E3
:1017680032AE002C3FF42FAE0021284611F07EFC4B
:1017780029E620460FF0D6FA0378B7F92E40113B38
:10178800032B0CD8DFE803F0021602163046FFF7E9
:101798000DFE81B2013109B23046FFF7F1FDB7F90C
:1017A8002E30A3423FF40FAE00221C2130460FF02A
:1017B80087FA08E63046FFF7F9FD81B2013909B228
:1017C8003046FFF7DDFDEAE720460FF0ABFA0746A3
:1017D8000DF10A0203A93046FFF792F9B3685BB32B
:1017E800B3F914405022002130461AF07FFFBDF8AB
:1017F8000A1085B2A6B2AA1992B28C1AA4B2ADF890
:101808000A40BDF80C30521A9918BDF80E0002446F
:101818002344044424B200941BB212B209B204A8AF
:1018280000F0A5F847F6FF72396804A800F02CF913
:1018380020B100233B71C6E50024D3E77600B6B299
:10184800A91909B20A4604A800F0B2F847F6FF72CF
:10185800396804A800F018F93871B4E5122200219B
:1018680030461AF043FF0FFA80F813220021304661
:101878001AF03CFF05B21022002130461AF036FF5C
:101888000FFA80F91122002130461AF02FFF07B213
:101898004F45B8BF4F464545B8BF4546AF42B8BFAC
:1018A8002F4612224FF4403130461AF01FFF0FFA2C
:1018B80080F913224FF4403130461AF017FF0FFA1F
:1018C80080F810224FF4403130461AF00FFF0FFA1B
:1018D80080FA11224FF4403130461AF007FF05B262
:1018E8005545B8BF5546C845B8BFC8464545B8BFB1
:1018F8004546ADB20235ADB2ED1BADB23046FFF78D
:101908005BF915FA80F52DB220460FF00BFAB0F905
:101918000030AB42B8BF2B46038054E52046FFF7A2
:1019280011FA50E500B5B0F90430B0F900209B1A5F
:1019380003EBD37343F34F0EC3F34F0313FA82F24F
:101948001FFA82FC428813449BB20A88A2EB0C025D
:101958004988CB1A0EFB0EFE13FB03F312FB02326F
:10196800964502D301205DF804FB0020FBE70180C7
:1019780042808380BDF90030C380704703880B44E0
:101988009BB2013B8380704743880B449BB2013B69
:10199800C3807047B0F90420B0F90030D21AB0F90A
:1019A8000630B0F90210581A013002FB00007047E7
:1019B800038889B25B1A038083881944818043882D
:1019C80092B29B1A4380C3881A44C2807047038826
:1019D80089B20B440380838819448180438892B27A
:1019E80013444380C3881A44C280704710B5B2F9C3
:1019F80000C0B1F900309C45B8BF9C46A0F800C0B3
:101A0800B2F902E0B1F902309E45B8BF9E46A0F88F
:101A180002E0B2F90430B1F90440A342A8BF23465A
:101A28008380B2F90620B1F906108A42A8BF0A4697
:101A3800C2809C4503DC964503DC012000E00020C1
:101A480010BD0020FCE7B2F90030B1F900C06345D1
:101A5800A8BF63460380B2F90230B1F902C06345FA
:101A6800A8BF63464380B2F90430B1F904C06345A6
:101A7800B8BF63468380B2F90630B1F906209342B5
:101A8800B8BF1346C380704770B582B004460D4690
:101A9800B1F90010B0F900008142C0F2AE80B4F98B
:101AA8000430994200F3AC80B5F90260B4F902E061
:101AB8007645C0F2A780B4F906108E4200F3A480E0
:101AC800002A40F3A3809BB21FFA80FCA3EB0C030F
:101AD8009BB20133C3F3C03606FA83F35B1089B2B5
:101AE8001FFA8EFEA1EB0E0189B20131C1F3C03697
:101AF80006FA81F149108B42A8BF0B469A4200DCD6
:101B08001346ADF800009EB2B444ADF804C0B4F971
:101B18000230ADF8023016FA83F3ADF80630002231
:101B280029466846FFF7B0FF70B1BDF8043033446A
:101B3800ADF80430BDF806303344ADF80630294618
:101B48006846FFF7EFFE59E0B4F9062093B29B1BF5
:101B5800ADF80230ADF80620002229466846FFF7A6
:101B680093FF70B1BDF804303344ADF80430BDF8CC
:101B780002309B1BADF8023029466846FFF7D2FEBB
:101B88003CE0B4F9042093B29B1BADF80030ADF8EB
:101B98000420002229466846FFF776FF70B1BDF899
:101BA80000309B1BADF80030BDF802309B1BADF830
:101BB800023029466846FFF7B5FE1FE0B4F9023047
:101BC800ADF8023016FA83F3ADF806300022294644
:101BD8006846FFF759FF08B901200FE0BDF800304B
:101BE8009B1BADF80030BDF806301E44ADF806600A
:101BF80029466846FFF796FE00E0002002B070BD57
:101C08000020FBE70020F9E70020F7E70120F5E7CF
:101C1800B0F90020B1F904309A4213DCB0F904207D
:101C2800B1F900309A420FDBB0F90220B1F9063061
:101C38009A420BDCB0F90620B1F902309A4207DA71
:101C48000020704700207047002070470020704730
:101C5800012070472DE9F04182B00C46B0F9003000
:101C6800B1F900108B4240DB06461546B0F9022058
:101C7800B4F902108A423CDBB0F90470B4F90410DC
:101C88008F4238DCB0F90680B4F90610884534DC98
:101C98000DB901202AE0ADF80430ADF806202A4637
:101CA80001A92046FFF7F0FE00B3ADF80470B6F9BD
:101CB8000230ADF806302A4601A92046FFF7E4FEB7
:101CC800A0B1B6F90030ADF80430ADF806802A4668
:101CD80001A92046FFF7D8FE40B1ADF804702A46A6
:101CE80001A92046FFF7D0FE00E0002002B0BDE8C1
:101CF800F0810020FAE70020F8E70020F6E72DE958
:101D0800F04383B006460C46154611462046FFF7B9
:101D18007FFF002800F0AF80002229462046FFF709
:101D280099FF002840F0AA80B4F9040083B2B4F9FE
:101D38000070BAB29B1A9BB2E288B4F902E01FFAAB
:101D48008EFCA2EB0C0292B2B5F902801FFA88F160
:101D5800A1EB0C0109B2002940F38A80ADF80070AC
:101D6800ADF802E0ADF80400ADF806806F4603CF89
:101D7800306071604FF0010C6188B5F9060087B2D8
:101D8800C91B0A4491B212B2002A1CDDB4F906201C
:101D9800904218DAB4F90020ADF80020ADF802003E
:101DA800B4F90420ADF804200F44ADF806700CF126
:101DB800010706EBCC0E6A4603CA46F83C00CEF88B
:101DC80004104FFA87FCB4F90270B5F90220974263
:101DD800B8BF1746B4F906E0B5F906209645A8BF7E
:101DE8009646AEEB070211B2B5F9000082B2B4F91B
:101DF80000801FFA88F9A2EB090212B2002A15DD49
:101E0800002913DDADF80080ADF80270ADF80400CC
:101E1800ADF806E00CF1010806EBCC096A4603CAE6
:101E280046F83C00C9F804104FFA88FC2288B5F936
:101E3800040081B2521A13449AB21BB2002B13DD6C
:101E4800ADF80000ADF802701144ADF80410ADF81B
:101E580006E00CF1010206EBCC046B4603CB46F816
:101E68003C0061604FFA82FC604603B0BDE8F08335
:101E78004FF0000C80E74FF0FF3CF5E74FF0000C07
:101E8800F2E72DE9F04782B0B0F90470B1F90030FB
:101E98009F424ADB80460C461646B0F90690B1F9D7
:101EA8000230994546DBB0F90030B1F9042093427D
:101EB80042DCB0F90220B1F906108A423EDC0EB9C4
:101EC800002533E0ADF80430ADF80620324601A90C
:101ED8002046FFF7D9FD054608B1002526E0ADF8F4
:101EE8000470B8F90230ADF80630324601A9204630
:101EF800FFF7CAFD8246C8B9B8F90030ADF804301A
:101F0800ADF80690324601A92046FFF7BDFD05460B
:101F180008B155460AE0ADF80470324601A92046DA
:101F2800FFF7B2FD10B9012500E00125284602B0EF
:101F3800BDE8F0870125F9E70125F7E70125F5E771
:101F48002DE9F04F83B0044617461E46884611B95E
:101F5800B2F5807F79D022883388D21A12B22280D3
:101F6800638871885B1A1BB26380B8F1000F6FD069
:101F78004C4B1B68434548D0B8F5616F75DDA8F533
:101F88006165DFF82CA18AFB05234FEAE579C9EBE7
:101F9800A30909F1010B6FF0090303FB09550FFAB7
:101FA80089F014F091FB00900FFA8BF014F08CFB81
:101FB800019009F15A0000B214F086FB81460BF13A
:101FC8005A0000B214F080FBC5F10A01019B05FB21
:101FD80003F3009A02FB01338AFB03C2DB17C3EB4E
:101FE800A203314A136000FB05F509FB01558AFB82
:101FF800051AED17C5EBAA052C490D605B11136096
:102008006D110D60274BC3F80080B4F90010B4F9C6
:102018000200B7F5807F30D0244B1B6801FB03F228
:10202800214DD5F800C000FB1C2207FB02F23588C1
:1020380005EBA242228000FB03F301FB0C3307FBF4
:1020480003F3728802EBA343638003B0BDE8F08F0B
:1020580007FB02F2318801EB2222228007FB03F3FF
:10206800728802EB23236380EFE7B8F1000F01DBEE
:10207800454686E708F5616583E70C4B1B6801FB5D
:1020880003F5094A176800FB1755328802EBA522A9
:10209800228000FB03F301FB0733728802EBA323C2
:1020A8006380D2E7000000203465002030650020FE
:1020B8006766666683880288981A80B2013000B223
:1020C8007047C3884288981A80B2013000B27047BE
:1020D800086000234B608B604FF0FF33CB60704784
:1020E8002DE9F04FD1B005460EF014FE04462846FF
:1020F8000EF088FE01904EA9204617F092FA692248
:10210800002120461AF0F2FA05466A2200212046EC
:102118001AF0ECFABDF83811ABB2CA1AADF838218A
:10212800BDF83C611E44B6B2ADF83C61BDF83A2139
:1021380080B2151AADF83A51BDF83E510544ADB21A
:10214800ADF83E515B1A1E44B6B2013633B2009365
:10215800801A0544ADB201352DB2E16AA26AA1EB3D
:10216800020994F85C3003F00303012B00F0F081BE
:10217800002306931222002120461AF0B7FA82465D
:102188001322002120461AF0B1FA804610220021BD
:1021980020461AF0ABFA07461122002120461AF011
:1021A800A5FABDF938C1A4F834C0BDF93A11E186E1
:1021B800BDF93C212287BDF93E3163871FFA8AF6B3
:1021C800079616FA8CFC1FFA8CFCA4F834C092B25D
:1021D8001FFA88F60296921B92B22287BEB2039625
:1021E80016FA81F189B2E1869BB280B204901B1A7B
:1021F8009BB263870098854200F3C2815B1A9BB249
:1022080001331BB2032B00F3BB81E38A05EBD572C4
:1022180003EB62039BB29A1EE28602336387238F25
:10222800A28E9B1A9BB2013319B20891638FE28E7A
:102238009B1A9BB201331BB21E46009B9D4200F3C2
:10224800B6818846009B9D4200F3B38104F1340BAC
:1022580004F1380AC14B0993A16DB1F1FF3F00F0B9
:10226800B181226DA76AD21B02FB08F292FBF9F238
:1022780010B2636DDB1B03FB08F393FBF9F31BB28E
:102288001B1A03FB01F10029C0F29A8102EB2122FB
:1022980013B20593A26CB2F1FF3F00F09F81276C47
:1022A800A06A3F1A07FB08F797FBF9F739B2636C86
:1022B8001B1A03FB08F393FBF9F31BB25B1A03FB2E
:1022C80002F2002AC0F2888107EB22273FB21622C9
:1022D800002120461AF00AFAC0B2009B9D4202DC97
:1022E800012800F08481009B9D4200F38A81BBF89D
:1022F80000303B44AAF80030BBF80030059A13447C
:10230800ABF80030069B002B40F0898104F13407BC
:102318003846099B9847012840F3B881B4F934300E
:10232800ADF83031B4F93630ADF83231B4F938306F
:10233800ADF83431B4F93A30ADF836313EAF3846FD
:1023480007F082FC3A464FF40031204616F0B6FCFE
:1023580001992CA816F0B7FF4FF400333993804B3E
:102368002D934FF00008CDF8B880309704F134076A
:102378002F972CAA1A2120460EF0A2FC0B224146C8
:1023880020461AF0B3F900B22B46009A9542A8BF2E
:1023980013464FEA6308B0EB630F00DC8046BDF9D3
:1023A800F8103346089A9642A8BF13465A10B1EB64
:1023B800630F00DC0A46009B9D4208DC238FA18E38
:1023C8005B1A9BB201331BB2B3EB420F0BDC009BD1
:1023D8009D4220DD638FE18E5B1A9BB201331BB2F5
:1023E800B3EB420F17DD9DF8FBB09DF812A19DF8E5
:1023F8001A9100238DF8FB308DF812318DF81A31BF
:102408003A463EA9019807F061FC8DF8FBB08DF8BB
:1024180012A18DF81A91A38A079E3344ADF8903023
:10242800238B029A9B1AADF89430E38A03990B44E4
:10243800ADF89230638B04981B1AADF896300023E0
:10244800424624A926A807F053FB002126AB1846CC
:1024580007F028F980469DF82E919DF81AA10023CF
:102468008DF81A318DF82E31BDF93801ADF8880094
:10247800BDF93A11ADF88A10BDF93C21ADF88C20B0
:10248800BDF93E31ADF88E3016FA80F080B2ADF865
:102498008800039E16FA81F189B2ADF88A1092B2CB
:1024A800029E921B92B2ADF88C209BB2049E9B1B9D
:1024B8009BB2ADF88E30009EB54200F3FE805B1AE9
:1024C8009BB201331BB2032B00F3F780E38A05EBC1
:1024D800D57503EB65039BB29A1EADF88A200233CB
:1024E800ADF88E300023BDF9F82039461CA807F056
:1024F800FFFA00211CA807F0D5F8054622AA3EA934
:10250800019E304607F0E2FB8DF81AA18DF82E9156
:1025180000238DF8FB308DF812318DF82E313A46B4
:102528003EA9304607F0D2FB1CA807F02BF926A8D5
:1025380007F028F9284607F0F9F8404607F0F6F8BA
:102548002CAA1B2120460EF0BBFB51B0BDE8F08F32
:10255800002A07DB002306930CE600BFBD20000815
:10256800F0980208002905DD236B9A4205D0002364
:102578000693FFE500230693FCE501230693F9E59E
:1025880000998D427FF74BAEA2EB0C0292B201325A
:1025980012B2032A3FF743AEA38A01EBD17203EBD1
:1025A80062039BB29A1EA2860233238737E6B0469F
:1025B80048E604F1360B04F13A0A4C4B09934BE612
:1025C800FF3163E6236BA26A9B1A03FB08F393FBB4
:1025D800F9F31BB205935DE6FF3275E6676AA36AF5
:1025E800FF1A07FB08F797FBF9F73FB26FE67F4240
:1025F8003FB2059B5B421BB205935B46D3469A46A6
:1026080071E6BAF80030DB1B9BB20133ABF800303F
:10261800BAF80030059A9B1AAAF8003072E6A36A45
:102628005B4203FB08F898FBF9F8009B9D420FDC1E
:10263800BBF8003043441BB2BAF900209A4202DDCD
:10264800ABF800306AE6ABF80020AAF8003065E67F
:10265800BAF80030A3EB08039BB201331BB2BBF9F5
:1026680000209A420DDDAAF80030BAF90020BBF923
:1026780000309A42BFF652AEABF80020AAF80030FC
:102688004CE6AAF80020ABF80030EEE701990AA85A
:1026980016F019FE4FF400331793154B0B930023D4
:1026A8000C930D970AAA1A2120460EF009FB0AAAD4
:1026B8001B2120460EF004FB47E700998D427FF767
:1026C80011AF121A92B2013212B2032A3FF70AAFBF
:1026D800A38A01EBD17603EB66039BB29A1EADF891
:1026E80088200233ADF88C30FCE600BFCB20000810
:1026F800F09802082DE9F0410D4641480EF036FAEF
:10270800012801D0BDE8F08128460EF007FB0446F9
:1027180028460EF0FFFA0646631E142BF2D801A2D3
:1027280052F823F0F72700080D2700080D270008A6
:102738000D2700080D2700080D2700080D270008A1
:10274800F72700080D2700080D2700080D270008A7
:102758000D2700080D2700080D2700080D27000881
:102768000D2700080D2700080D27000881270008FD
:102778000D270008012800084FF4003116F037FD36
:10278800074628460EF0CEFA0446B0F90000B842D3
:10279800B8BF3846208012220021304619F0A6FF23
:1027A80007B213220021304619F0A0FF05B210220B
:1027B8000021304619F09AFF0FFA80F81122002103
:1027C800304619F093FF03B24345A8BF4346BD42C4
:1027D800A8BF3D46AB42A8BF2B46002B92DA5B420E
:1027E800B4F900209342B8BF134623808AE700F16A
:1027F800340117F02CFB85E72846FFF771FC81E7C9
:10280800F098020810B50C46002104F13C00FDF7D1
:10281800B7FF002104F14C00FDF7B2FF10BD08B569
:1028280003681A684FF0FF31D96002F13C01994200
:1028380007D002F14C01994206D0186817F02FFB17
:1028480008BD99685162F8E799681163F5E708B51A
:10285800C160006817F023FB08BD0000F0B593B015
:1028680007460D4616461C469DF860301BB3E368C4
:10287800B3F1FF3F2BD0A3686360A16035600021EE
:102888002046FDF77DFF01A8FDF760FF0194124B7C
:102898000293002109910A914FF480730B930F4B17
:1028A80004936522384619F021FF0C9001A8FDF722
:1028B80099FF13B0F0BD00212046FDF761FF4FF0EE
:1028C800FF33E3603560384617F0E9FAF1E713683B
:1028D8006360A160D2E700BF5728000827280008D6
:1028E800436A8B4218D010B582B0C46AA142A8BF0F
:1028F8002146846AA142B8BF2146046BA142B8BFF1
:1029080021468B4206D0009200F13C0300F12402DC
:10291800FFF7A4FF02B010BD704738B50C4600257C
:102928008D626423CB620D634D628D860D87CD86E3
:102938004D8791F85C3065F3010381F85C303C31D8
:102948002046FFF7C5FB04F14C012046FFF7C0FB0A
:102958000821204615F040FD1021204615F03CFDC9
:102968002A4629462046FFF7BBFF38BD90F85C3061
:1029780003F00303022B1AD1C36A9942A8BF194670
:10298800836A9942B8BF1946436A9942A8BF194653
:10299800036B8B420BD000B583B0009200F14C035F
:1029A80000F13002FFF75AFF03B05DF804FB7047EF
:1029B800836CB3F1FF3F01D0406C7047406A7047A9
:1029C80090F85C3003F00303022B01D0806A704753
:1029D800836DB3F1FF3F01D0406D7047006B7047C6
:1029E80090F85C0000F00300704710B50C46102109
:1029F800204615F0F1FC4FF48061204615F07CFF6D
:102A080010BD000010B50146034816F007F804464B
:102A180016F0A3F8204610BD0C99020810F00F001C
:102A280000D101207047C0F300107047C0F30020A8
:102A38007047C0F340107047C0F380107047C0F370
:102A480040207047C0F380207047C0F3C010704723
:102A5800C0F300207047C0F3C0207047438ED3B145
:102A68002DE9F0410746D0F824800024264658F87E
:102A780024509DB10C492846FDF782FB90B12B7874
:102A88006BB1FB6A33F81600FFF7DCFF034630B979
:102A98000134A4B2EAE70023184670470023184619
:102AA800BDE8F0810023FAE7289902082DE9F04FE4
:102AB80089B00546039106A916F0B3FD284616F01D
:102AC80003FE0190284616F006FE0290122200210D
:102AD800284619F00BFE0FFA80FB13220021284626
:102AE80019F004FE0FFA80F910220021284619F087
:102AF800FDFD0FFA80F811220021284619F0F6FD95
:102B080007B214220021284619F0F0FD044606B247
:102B180015220021284619F0E9FD04F0010406EB0E
:102B2800D67604EB6606013636B200F0010AC0F329
:102B3800C03303FA80F00AEB600A0AF1010A0FFABF
:102B48008AFA0D2EA8BF0D26BAF10D0FA8BF4FF0B7
:102B58000D0AB9F10D0FA8BF4FF00D09B8F10D0F0F
:102B6800A8BF4FF00D080D2FA8BF0D2700242DE09A
:102B7800BDF818C0ACEB0A0C1FFA8CFC1CFA80F0EC
:102B8800ADF810004CE0BDF81A00801B80B210FAB6
:102B980081F1ADF8121056E0BDF81810514489B211
:102BA80011FA82F2ADF8142060E0BDF81A20324420
:102BB80092B212FA83F3ADF816300022039904A8F2
:102BC800FEF762FF002864D10134A4B22B8EA34221
:102BD8005FD9AA6A02EBC40332F93400ADF81000D9
:102BE800B3F90210ADF81210B3F90420ADF81420AF
:102BF800B3F90630ADF816308345B9DBBDF818C017
:102C0800DE46BBF10D0FA8BF4FF00D0E1FFA8EFE6A
:102C1800ACEB0E0C1FFA8CFC1CFA80F0ADF810001F
:102C28008845B0DBBDF81A00C446B8F10D0FA8BF3F
:102C38004FF00D0C1FFA8CFCA0EB0C0080B210FAC0
:102C480081F1ADF812100199A1EB090102398A420C
:102C5800A2DBBDF8180049460D29A8BF0D2110FABE
:102C680081F189B211FA82F2ADF81420029AD21BCE
:102C7800023A934299DBBDF81A103A460D2FA8BFC5
:102C88000D2211FA82F292B212FA83F3ADF81630DD
:102C980093E72B8EA34203D0204609B0BDE8F08FFE
:102CA8004FF6FF74F8E700004FF6FF73994276D0AD
:102CB800F0B585B004460D46038E8B4201D805B0A9
:102CC800F0BD826A02EBC10332F93120ADF8082069
:102CD800B3F90220ADF80A20B3F90420ADF80C20AE
:102CE800B3F90630ADF80E30694616F09AFC142296
:102CF8000021204619F0FAFC06B2152200212046D0
:102D080019F0F4FC07B220461AF03CFA10F0E8FA81
:102D1800234A82FB0032C317C3EBA2031BB29E42B5
:102D2800B8BF1E46BB42B8BF3B46BDF80800BDF859
:102D38000010B6B28A1B10FA82F2ADF80820BDF86E
:102D48000A70BDF802209BB2D01A17FA80F080B240
:102D5800ADF80A00BDF80C70314417FA81F1ADF8EE
:102D68000C10BDF80E101A4411FA82F292B2ADF8A6
:102D78000E20A38EAB4204D002A9204617F067F8B4
:102D88009DE7E36A33F8153013F4806FF4D0131A13
:102D98009BB201339BB2C01AADF80A00ECE770474A
:102DA800676666662DE9F04FCFB004460DF0B2FFB6
:102DB800038E13B94FB0BDE8F08F054620460EF0DC
:102DC80021F80646049095F8223043F0080385F868
:102DD80022304CA9284616F024FC2C8C0594002798
:102DE8002F8495F8223043F0080385F8223026A86E
:102DF80006F02AFF1EA805F0D3F826AA4FF4A02152
:102E0800284615F05BFF1EAA4FF4A021284616F0AD
:102E1800A7F895F8223067F3C30385F822302C848D
:102E280010223946284619F061FC03B20693112294
:102E38003946284619F05AFC03B20793122239463C
:102E4800284619F053FC03B2089313223946284642
:102E580019F04CFC03B2099331460CA816F033FA6A
:102E68004FF4A0231993CB4B0D930E973CAB1093C3
:102E780034AB11933C462EE10134A4B26B6AA60030
:102E8800C54953F82400FDF77BF90028F4D0EB6A14
:102E9800BA464FEA470B33F817904846FFF7C3FD89
:102EA800002840F014814846FFF7D2FD002840F082
:102EB8001D814FF000084846FFF7BEFD002800F0CE
:102EC800188148F08008AA6A02EBCA0332F93A006E
:102ED800ADF82801B3F90210ADF82A11B3F90420AE
:102EE800ADF82C21B3F90630ADF82E31BDF830C15C
:102EF8001CFA80F0ADF82801BDF8320110FA81F112
:102F0800ADF82A111CFA82F2ADF82C2110FA83F3DD
:102F1800ADF82E31B8F1000F40F00981382226A90A
:102F28003CA813F0DDFD20221EA934A813F0D8FD1B
:102F3800EB6A33F80B00FFF78EFD002800F01A81CA
:102F48009DF8ED3043F001038DF8ED304AAB0F9357
:102F5800CDF868A00CAA1A2128460DF0B1FE9DF8FC
:102F68001331C3F344030F2B2AD99DF813310F22D1
:102F780062F345038DF81331BDF92821B5F91430F2
:102F880008990B449A4200F0FC80BDF92C21B5F950
:102F9800183009995B1A9A4200F00081BDF92A217C
:102FA800B5F9163006990B449A4200F00281BDF932
:102FB8002E21B5F91A3007995B1A9A4200F004815C
:102FC800BDF82E91BDF82A31A9EB03091FFA89F93A
:102FD80009F101091FFA89F20FFA89F918F0200896
:102FE80008D0E96A31F80B1011F4806F02D09B1AEF
:102FF800ADF82A314AAA3CA9049806F067FEBDF943
:10300800E2206B6A9E59BDF83431BDF830115B1A65
:103018009BB201331BB29DF8ED100291019300920F
:10302800BDF9E430349A31460BA824F06AFCBDF8A7
:103038002C31BDF828115B1A9BB201331BB2BDF9C4
:103048002CC0A3EB0C0303EBD37301EB630189B230
:10305800ADF82811BDF82E31BDF82A219B1A9BB274
:1030680001331BB2BDF92E001B1A03EBD37302EB1D
:10307800630292B2ADF82A2111FA8CFCADF82CC18A
:1030880012FA80F083B2ADF82E01B8F1000F11D01A
:10309800E96A31F80B1011F4806F0BD009EBD9797C
:1030A800C9F34F09A2EB0902ADF82A21A3EB0903E2
:1030B800ADF82E310023009333464AAA34A9049868
:1030C80004F09EFF0CAA1B2128460DF0F9FD0137DC
:1030D800BFB20134A4B22B8EBB423FF6CFAE95F8F7
:1030E800223023F0080385F8223063E64FF0010808
:1030F800E1E6AB8EBB427FF4E6AE059B13F0200FF2
:1031080001D048F02008059B13F0020F01D048F0C9
:103118000208059B13F0040F01D048F00408059B32
:1031280013F0080F3FF4CFAE48F00808CBE6A5F837
:10313800208095F8223043F0080385F822303CA817
:1031480006F082FD34A804F02BFF3CAA4FF4A0211E
:10315800284615F0B3FD34AA4FF4A021284615F0EF
:10316800FFFE059B2B8495F8223023F0080385F891
:103178002230DDE69DF8ED3023F001038DF8ED30C7
:10318800E4E69DF813310B2262F345038DF8133101
:10319800FBE600BFB49E0208289902089DF8133187
:1031A800C3F3440202F0170262F345038DF81331AA
:1031B800F4E69DF81331C3F3440202F01D0262F3F2
:1031C80045038DF81331F2E69DF81331C3F3440239
:1031D80002F01E0262F345038DF81331F0E600BFDA
:1031E80010B50C46886A13F0B1FBE06A13F0AEFB29
:1031F8000023A362E36210BDF8B506460F4601231B
:1032080043860024254604E0738E01337386013417
:10321800A4B257F8240048B103783BB11549FCF72C
:10322800AFFF0028F0D00135ADB2F0E7338EAB42E6
:103238001BD0B06A18B113F089FB0023B362F06A9F
:1032480018B113F083FB0023F362E80013F060FB6E
:10325800B06258B1680013F05BFBF06238B1B36A32
:1032680033B1690013F02AFD3586F8BDFEE7FEE7A5
:103278000025F6E72899020810B50146034815F01D
:10328800CDFB044615F069FC204610BDB49E02082B
:10329800002900F0EF802DE9F04F8FB007468A46ED
:1032A800FFF7AAFFC7F824A016220021384619F014
:1032B8001DFAC3B2069312220021384619F016FAF5
:1032C800059010220021384619F010FA0D901422AA
:1032D8000021384619F00AFA044603B20C93152265
:1032E8000021384619F002FA0B9003B204933846CD
:1032F80016F004FA0990384616F020FA7B8E013B46
:1033080013FB04F3C31A1BB20A934FF0000E764660
:1033180023E0FB6AB04433F81800FFF77FFB204432
:1033280084B209F101091FFA89F9C8465AF82950E7
:103338003DB151492846FCF723FF10B12B78002BEB
:10334800E7D14546DDF80880DE46B9F1000F0FD118
:1033580001350AEB850A0EF1010EB7F83280F04507
:103368007FD94FF000094C46CDF80880F346DCE7DA
:103378000A980BFB00F1B1FBF8F1BDF834301944A1
:103388000C9A12FB0BF292B212FA81F109B2029175
:103398000BFB0001B1FBF8F103EB010B12FA8BFBFD
:1033A8001FFA8BFB0BF1FF3B0FFA8BF30393BDF86E
:1033B80024C009F1FF320B9B12FB03F2ACEB0202B3
:1033C8000FFA82FBBBF1000F08DB4FF00008C14683
:1033D800CDF81CE0CDF820A0E24613E04FF0000B3A
:1033E800F3E7BDF8142011441344B86A039A009215
:1033F8001BB2029A09B200EBC600FEF7B8FA08F150
:1034080001080136454524D9FB6A33F81600FFF751
:1034180005FB09FB0BF1B1FBF4F1049B13FB08F36B
:103428009BB219441FFA81FC09B2814409FB0BF0D5
:10343800B0FBF4F003449BB2013B98B21BB2069A6E
:10344800012ACED1AAEB000001B2AAEB0C0213B2FA
:10345800C7E7DDF81CE0DDF820A001350AEB850A96
:1034680079E7384615F03EFF384616F018FD0FB0DC
:10347800BDE8F08F704700BF2899020808B50846D4
:1034880000230B864B864FF6FF728A868B62CB62CF
:103498004B6291F8362063F3000281F83620024926
:1034A800FFF7F6FE08BD00BF0400002010B5044673
:1034B800028E5200C06A13F013FB616A2046FFF7C0
:1034C800E7FE10BD38B504460D46038E8B4203D87F
:1034D8004FF6FF73994208D1A18E2046FFF7E4FB0F
:1034E800A58629462046FFF7DFFB38BD038E8B42B1
:1034F80024D970B505460C46164612F0100F0FD1A8
:10350800E96A31F81430F24312B2134021F814304A
:1035180021462846FFF7C8FB16F4806F0AD170BD14
:10352800012114F0B0FF0028EAD00121284614F048
:1035380053FFE5E7284615F0D5FEF0E7704770B56C
:1035480005460E46002406E0324621462846FFF787
:10355800CDFF0134A4B22B8EA342F5D870BD038EE3
:103568008B423ED970B504460D46164690F8363063
:1035780013F0010F02D012F4807F08D116F0100F5B
:103588001DD0218E012916D90023012006E04FF411
:103598008071FFF7D4FFF1E701339BB2994209D953
:1035A800AB42F9D0E26A32F8132012F0100FF3D1CF
:1035B8000020F1E718B10121204615F09DF9E26AD3
:1035C80032F81530334322F8153029462046FFF7E4
:1035D8006BFB16F4806F00D170BD204615F082FE9B
:1035E800FAE7704770B505460E46002406E03246F5
:1035F80021462846FFF7B3FF0134A4B22B8EA3421D
:10360800F5D870BD808E70472DE9F8434FF6FF73EB
:10361800994223D080460F46B0F8309089451FD391
:1036280000252E4600E02646BD420FD00135ADB23A
:10363800741CA4B2D8F824300B4953F82400FCF7C2
:103648009FFD0028EFD1B41CA4B2ECE7A94509D02E
:10365800D8F8243053F82600BDE8F8830020FBE7AB
:103668000020F9E70020F7E728990208038E8B422B
:1036780007D9C36A33F811309A430CBF01200020E0
:1036880070470020704770B504460E464FF48072AC
:10369800FFF7ECFF05464FF480712046FFF74FFF18
:1036A80005B970BD4FF4807231462046FFF757FFC9
:1036B800F7E700002DE9F04F83B00D46C3480DF041
:1036C80055FA012802D003B0BDE8F08F28460DF066
:1036D80025FB044628460DF01DFB0646132C59D041
:1036E800013C292CEFD801A353F824F0D737000860
:1036F800893800081D3A0008CF360008CF36000880
:10370800D9390008CF36000837390008CF36000805
:10371800CF360008CF360008CF360008F13A000847
:103728002D3A0008D73A0008D73A0008CF360008E3
:10373800CF360008CF360008CF360008553D0008C0
:10374800CF360008CF360008CF360008CF3600083D
:10375800CF360008CF360008CF360008CF3600082D
:10376800CF360008CF360008CF360008CF3600081D
:10377800CF360008CF360008CF360008CF3600080D
:10378800CF360008CF360008CF360008CD370008FE
:10379800C3370008FFF762F90028A1D0738E23B958
:1037A800002128460DF040FB9AE7304615F0C6FF89
:1037B800738E90FBF3F109B2F3E7716A3046FFF7B5
:1037C80067FD80E7716A3046FFF762FD7BE72846B0
:1037D8000DF0A8FA0446B18E3046FFF765FA10F0EE
:1037E800C3FF10F0C7FF012829D0032827D0B48EC3
:1037F8004FF6FF739C423FF466AFF36A33F81450F8
:103808002846FFF71CF900287FF45DAF2846FFF72C
:1038180019F900287FF457AF2846FFF70DF900285B
:103828007FF451AF2846FFF7FEF800287FF44BAF2E
:1038380000946A461C2130460DF042FA43E701A97C
:10384800204611F008F801A93046FFF72FF9044681
:103858004FF6FF73B3869842C9D0F36A33F8105015
:103868002846FFF7E9F80028C1D12846FFF7DBF81A
:103878000028BCD1B48621463046FFF715FAB6E7D2
:1038880028460DF04FFA054610F06EFF044610F07A
:1038980071FF04283FF417AF02283FF414AF01A9C1
:1038A800204610F0D8FF01A93046FFF7FFF804467C
:1038B800B18E81423FF407AF4FF6FF73994232D180
:1038C800B486284610F0BAFF4FF6FF739C423FF4C7
:1038D800FAAEF36A33F814502846FFF7ADF800281B
:1038E8007FF4F1AE2846FFF79EF800287FF4EBAE90
:1038F80021463046FFF7D8F9F56A35F81400FFF786
:103908009EF800287FF4DFAEB38E35F81300FFF77A
:1039180099F800287FF4D7AE00946A461C213046F7
:103928000DF0CEF9CFE63046FFF7BEF9C8E7B78EFF
:103938004FF6FF739F4235D0F56A35F81740204699
:10394800FFF783F8D0B12046FFF776F8B0B92046E4
:10395800FFF77EF848B196F8363013F0010F04D11E
:1039680024F4807425F8174003E044F4807425F8A3
:10397800174096F8363013F0010F18D1F36AB58E58
:1039880033F815402046FFF75AF818B92046FFF7D4
:1039980059F838B12046FFF74FF818B92046FFF715
:1039A80042F848B1B18E3046FFF77EF98BE6B18E0A
:1039B8003046FFF768FEE1E700956A461C2130466D
:1039C8000DF07EF901287FF47EAEEBE7B49E020885
:1039D800B48E4FF6FF739C423FF475AEF36A33F82A
:1039E80014502846FFF725F800287FF46CAE2846C7
:1039F800FFF722F800287FF466AE2846FFF713F891
:103A080000287FF460AE00946A461C2130460DF011
:103A180057F958E6B18E3046FFF746F94FF6FF736F
:103A2800B38650E6338E002B3FF44DAE28460DF09A
:103A380079F9054610F09EFE044695B1304614F01B
:103A480036FD0FF035FBB28E4FF6FF739A427FF4C6
:103A58003AAE022C0ED0042C0AD04FF6FF73B38670
:103A680031E600200FF064FC10F084FE0446E5E720
:103A78000028F2D096F8363013F0010F16D1002442
:103A880017E00134F36A33F814502846FEF7CBFFE9
:103A98000028F6D12846FEF7CFFF0028F1D12846A6
:103AA800FEF7C4FF0028ECD0B4860CE60024E9E752
:103AB8000134F36A33F814502846FEF7B4FF00289F
:103AC800F6D12846FEF7B8FF0028F1D1ECE7B18E11
:103AD8004FF6FF73994203D14FF6FF73B386F2E5B1
:103AE8003046FFF7E1F8F7E7B18E3046FFF7DCF82C
:103AF80028460DF017F90378113B032B32D8DFE87D
:103B080003F0C5650236B38E4FF6FF7293420AD0B2
:103B18000133B386B38E378EBB4201D30023B386FD
:103B2800B6F834800CE00023B386F3E70134A4B27E
:103B3800B486A74201D80023B386B38E43450ED07E
:103B4800F36AB48E33F814502846FEF76CFF002849
:103B5800ECD12846FEF770FF0028E7D102E04FF6C7
:103B6800FF73B386B18E3046FFF79EF8ABE5B28E91
:103B78004FF6FF739A4206D0B38E3BB9338E013BA2
:103B8800B386B78E0BE00023B386F5E7013BB38617
:103B9800F7E79CB1013CB486B38EBB4212D0F36AFE
:103BA800B48E33F814502846FEF73DFF0028F0D1B4
:103BB8002846FEF741FF0028EBD1D3E7338E013BBF
:103BC800B386E9E74FF6FF73B386CBE715220021EA
:103BD800304618F08BFD0FFA80F9B48E4FF6FF735C
:103BE8009C420ED0B56A05EBC40735F83420BB8873
:103BF8009B1A9BB2013343F34E031A440FFA82F81F
:103C08001DE00023B38605E00134A4B2B486338EE8
:103C18009C420ED2F36AB48E33F814502846FEF74D
:103C280002FF0028F0D12846FEF706FF0028EBD156
:103C380098E74FF6FF73B38694E70134A4B2B6F859
:103C480030A0A2451DD905EBC403B3F90210B7F99A
:103C580002209142F1DD35F934204245EDDCB3F91B
:103C680004304B449845E8DCF36A33F814B05846FE
:103C7800FEF7E2FE0028E0D15846FEF7D4FE002801
:103C8800DBD1A2457FF66EAFB4866BE71522002123
:103C9800304618F02BFD0FFA80F9B48E4FF6FF73FB
:103CA8009C420FD0B56A05EBC40735F83420BB88B1
:103CB8009B1A9BB2013343F34E031A440FFA82F85E
:103CC80024B21DE00023B38605E00134A4B2B48613
:103CD800338E9C420ED2F36AB48E33F814502846C1
:103CE800FEF7A1FE0028F0D12846FEF7A5FE002821
:103CF800EBD137E74FF6FF73B38633E7013C24B2C5
:103D0800002C1EDB05EBC403B3F90210B7F902203F
:103D18009142F3DA35F93420A2EB09029045EDDB44
:103D2800B3F904304345E9DBF36A33F814A050468D
:103D3800FEF782FE0028E1D15046FEF774FE002807
:103D4800DCD1002CFFF60EAFB4860BE72846FFF750
:103D580029F8B8E408B590F8362061F3000280F835
:103D680036200021FFF78FFC08BD000010F0030F7C
:103D780012D10C4BA3FB00235B09642202FB130343
:103D880063B9084BA3FB0023DB094FF4C87202FB9D
:103D980013032BB1002070470020704701207047A3
:103DA800012070471F85EB5108B54A1E18D40B2A0D
:103DB80001DD01300C3A012A16D00E4981FB02318F
:103DC8001144D317C3EBA103C3EBC303D31A03F006
:103DD800010348BF5B42D8B2C0F11F00C0B208BDA2
:103DE800013801F10B02E2E7FFF7C0FF1C30C0B257
:103DF800F5E700BF9324499202298CBF00230123D1
:103E0800C01A03EB430301EB8301C1EB41113E39B7
:103E18000D4BA3FB013102EBD103034403EB9003E9
:103E28000A4AA2FB0020A3EB501303EBD013084867
:103E3800A0FB03201A1A00EB52008008C0EBC00058
:103E4800181AC0B2704700BFABAAAAAA1F85EB51C7
:103E58002549922470B504460CF05CFF05462046BF
:103E68000CF060FF436BB3F5A02F00D070BD044683
:103E7800816B062922D802690023D370026982F86F
:103E880022304FF40042218F2846FFF7EFFB40BB5A
:103E98004FF48042218F2846FFF7E8FB0028E5D041
:103EA8002369FF2283F82220266928461FF074FD23
:103EB800F0832269138C01331384D7E7402289B237
:103EC8002846FFF7D3FB0028DBD022690023D370F4
:103ED800226982F822306669122002F049FDB08119
:103EE800CFE723696622DA70266928461FF054FD59
:103EF800B0802846FFF786FBA36B9842C8D1236998
:103F0800B222DA70C4E770B505464FF44041406A02
:103F1800FFF715FB012295F92E10A88DFFF76CFF0E
:103F280006462B6B0BB3002401E00134A4B2AB8E20
:103F3800A3421AD92B6B03EB840133F82420AB8DF1
:103F48009A42F2D191F9022095F92E309A42ECD199
:103F580091F9031016FA81F189B206314FF4004243
:103F680089B2686AFFF7FBFADFE7EB6AAA6A53408F
:103F780033F07F4300D070BD95F92B1016FA81F10C
:103F880089B206314FF4804289B2686AFFF7E7FACE
:103F9800F1E708B5018580F82A2080F82B30FFF773
:103FA800B2FF08BD2DE9F04F83B004468B4689B2B5
:103FB80081854FFA82FA80F82EA0012380F82F30ED
:103FC800ADF804108DF806A08DF807304021406A3E
:103FD800FFF7B5FA002505E04022A9B2606AFFF7AD
:103FE800BEFA0135062DF7D91FFA8BFB5146584604
:103FF800FFF7DAFE8146012251465846FFF7FCFEDC
:104008000746804601260CE008F146003346384A48
:10401800042104EB800019F0F1FE08F101080136D3
:10402800F6B209EB07054545EED80AF1FF315846C7
:10403800FFF7BAFEC61BF6B20136F6B24FF000081B
:1040480013E008F146003346294A042104EB8000B6
:1040580019F0D4FE08F10701402289B2606AFFF71F
:104068007EFA08F101080136F6B2B845E9D301260F
:1040780011E005F1460033461D4A042104EB800097
:1040880019F0BCFEE91D402289B2606AFFF767FAA1
:1040980001350136F6B2292DEBD92046FFF733FF5B
:1040A800606AFFF7AFFA4FF6FF73984208D12046CF
:1040B80015F0F5FE204619F098F8064600250AE0A6
:1040C800F91D89B2606AFFF7FDF9F0E722461C2165
:1040D8000CF0F6FD0135B54207D22946204619F005
:1040E8006FF8636A8342F1D1F4E703B0BDE8F08F5B
:1040F8005499020838B50C4640F2E4720A85012347
:1041080081F82A3081F82B308A8581F82E3081F8A1
:104118002F3000250D638D86A82104F58C7012F0D0
:10412800CDFD29462B4618E0062B0DD901F1460096
:104138004FF0780C04F820C004EB80000E3244F8ED
:1041480022000131C9B206E0274A52F8230003F1E0
:104158000E0244F822000133DBB2372B0CD8002BB7
:10416800F2D01A46581C10F0070FDDD103F10E02E9
:104178001E4844F82200EEE71D4BC4F814312046CF
:10418800FFF77AF8606204F13801FFF781F84FF41D
:104198000871606AFFF726FA00231A221549606A37
:1041A8000CF0D8FD42F26401606A15F099F901211A
:1041B80020460DF051FC0121606A0DF09DFC94F938
:1041C8002E20A18D2046FFF7EDFE94F92B3094F9AF
:1041D8002A20218D2046FFF7DCFE4FF48041606ADB
:1041E80014F08AFB38BD00BFD09E02082899020847
:1041F800309902085D3E00082C307047F8B50C462F
:104208000021204619F030F9002120460DF024FC49
:1042180000230222194620460DF04AFC2046FEF7EC
:10422800F1FB05460022284918F07DFF42F264019F
:10423800284615F06CF9284616F02CFB284615F090
:104248004AFA06460146284615F04AF91F4F002348
:104258000722394628460CF07DFD0421284614F033
:10426800BBF8204610F086FD0546032111F0B8FA88
:1042780000220221284618F064FF012128460DF08B
:104288003BFC2046FEF7BEFB05460022104918F00D
:104298004AFF32463146284615F050F900230722D6
:1042A800394628460CF056FD0421284614F094F8A7
:1042B80000231C22074920460CF04CFD00221C213B
:1042C80020460CF0FDFCF8BD74990208194300085B
:1042D80078990208E142000838B50CF01BFD054644
:1042E80018F044FFFFF788FF04460121284618F01C
:1042F80067FF94F90230013B034A52F823302288C1
:10430800024911F02AFA38BD089F02087C99020870
:10431800F0B583B00CF0FEFC044618F027FF054604
:1043280018F024FF0646FFF767FF00680190002198
:10433800284618F045FF84421DD09DF906300C2B05
:104348002AD001338DF80630BDF804709DF9064077
:10435800224639463046FFF725FE0121284618F047
:104368002FFF013C114B53F824303A46104911F005
:10437800F4F903B0F0BD9DF90630012B03D0013BE1
:104388008DF80630E0E70C238DF80630BDF80430D0
:10439800013BADF80430D7E701238DF80630BDF8AE
:1043A80004300133ADF80430CEE700BF089F02089F
:1043B8007C99020870B50C46084618F0D7FE0646E8
:1043C8000021204619F050F8002120460DF044FB4A
:1043D80020460BF03DFE054614490BF045FE3346DA
:1043E8001C22134928460CF0B5FC012128460DF083
:1043F80083FB20460BF02CFE05460E490BF034FEDD
:1044080033461C220C4928460CF0A4FC01212846FE
:104418000DF072FB00231C22084920460CF09AFC80
:1044280000221C2120460CF04BFC70BDF0990208BC
:10443800C5440008589C02088944000849440008FB
:1044480038B50CF067FC054618F090FEFFF7D4FE6F
:1044580004460021284618F0B3FE2188C1F5FC6106
:10446800073189B20BF0A6FE0121284618F0A8FEF4
:1044780094F9021089B2013989B20BF09BFE38BD5C
:1044880030B583B005460CF045FC044628460CF0D0
:104498004BFC054620460BF0A3FE04462846FFF7D2
:1044A800ABFE00680190621C52B28DF80620BDF880
:1044B80004102846FFF776FD03B030BD30B583B051
:1044C80005460CF027FC044628460CF02DFC054652
:1044D80020460BF085FE04462846FFF78DFE00684F
:1044E8000190C4F5FC61073189B2ADF804109DF95B
:1044F80006202846FFF756FD03B030BD70B50646C6
:104508000C4615F0FBF8B6F8843003FB00F545F3CC
:104518000F2512220021304618F0E8F8211A09B2B6
:10452800002922DB8D4209DB96F8883003F0070367
:10453800012B07D0022B11D0002070BDB6F88200E5
:104548000138FAE7B6F88220013A05EBD57343F350
:104558004F0302FB013393FBF5F0EEE7B6F8823028
:1045680003FB01F191FBF5F0E7E70020E5E7B0F880
:1045780082308B4200D870472DE9F04383B004465F
:104588000E4615F0BBF8B4F8843003FB00F040F396
:104598000F25204616F094FC074694F8883013F04F
:1045A800080F0CD003F00703012B0CD0022B00F0EE
:1045B8008D80204615F073FC03B0BDE8F0832046DB
:1045C80015F06DFCF8E732220021204618F08EF82D
:1045D800804612220021204618F088F8A38A034456
:1045E80018FA83F39BB2DF1BBFB249224FF4A02114
:1045F800204618F07BF8804601224FF4003120460F
:1046080018F074F8B4F91430ADF80030B4F9163075
:10461800ADF80230B4F91820ADF80420B4F91A2026
:10462800ADF806209BB21FFA88F81FFA80F908EB4C
:10463800090189B25B1AADF8023011FA82F2ADF8BD
:104648000620B4F88230013B9E4222DB002EB3D014
:10465800731E05FB03F3B4F88220013A93FBF2F3CF
:104668003B449BB2A3EB08039BB2A3EB0903ADF851
:10467800003005FB06F090FBF2F03B1818FA83F3C4
:1046880019FA83F3ADF804306946204615F0DFFBCC
:1046980092E705FB06F292FBF3F23A4492B2A2EBE0
:1046A800080292B2A2EB0902ADF8002006FB0552FF
:1046B80092FBF3F33B4418FA83F319FA83F3ADF84A
:1046C80004306946204615F0C2FBBFE715220021D9
:1046D800204618F00BF800B2B4F8843003FB00F061
:1046E8004FEA202805EB2025B4F8823095FBF3F536
:1046F80032220021204617F0F9FF1FFA85F915FB31
:1047080006F5ADB2B4F9143003FA80F6122200218E
:10471800204617F0EBFF06FA80F00544ADB2694673
:10472800204614F07EFFEB1B9AB2ADF8003091449E
:10473800ADF80490A2EB0802ADF8002069462046C7
:1047480015F085FB38E700002DE9F04FA3B00446CB
:104758000E468A6800F1140120A8FDF747F910B940
:1047680023B0BDE8F08FB368019320ABB360322269
:104778000021204617F0BAFF0746122200212046E2
:1047880017F0B4FFBFB217FA80F083B20493102277
:104798000021204617F0AAFF17FA80F5ADB220468F
:1047A80014F0ACFFB4F8843003FB00F848F30F288A
:1047B800204614F0C3FFB4F8863003FB00F949F330
:1047C8000F290DF16C0A504603F067FF524600218D
:1047D800204614F06AFC314609A814F074FD00273D
:1047E8001697944B0A930B97CDF83CA04FF0FF33E4
:1047F80017931297139709AA1A2120460CF060FA0A
:1048080031223946204617F071FFC3B20293322293
:104818003946204617F06AFF02B20692332239461B
:10482800204617F063FF0390204616F049FB0590D9
:10483800204616F0E5FAB4F87E70002F76D0E38AA9
:104848001D44ADB2281A1FFA80FBB4F91430ADF834
:104858007C30B4F91830ADF878300FFA87FA029B3B
:10486800022B29D9069A002A2BDD039B13F0020F8D
:1048780008D10025039B13F0010F0ED1CDF81C8041
:10488800B0464EE010220021204617F02FFF00B25C
:1048980008B10025EEE70125ECE7112200212046AA
:1048A80017F024FF00B2002873D1013F0FFA87FAEE
:1048B800CDF81C80B04634E00025CDF81C80B04609
:1048C8002FE00025CDF81C80B0462AE009FB05F34F
:1048D800B4F87E20013A93FBF2F3ADF87E301BFA70
:1048E80083F31BB2ADF87E30ADF87A30514B0A93A2
:1048F80001230B931FAF12971EAE1396179509AAA3
:104908001A2120460CF0DCF933463A461BA94046EA
:1049180003F0D8FE09AA1B2120460CF0D1F9013575
:104928002DB25545D2DB4646DDF81C80B4F88070C0
:10493800002F70D0A38A049A1A441FFA82F9059BA3
:10494800A9EB03091FFA89F9B4F91630ADF87E30DE
:10495800B4F91A30ADF87A300FFA87FA029B022BB5
:1049680026D9069B002B25DD039B13F0040F14D1D9
:104978000025039B13F0080F4BD01322002120467B
:1049880017F0B4FE00B2002843D1013F0FFA87FAAE
:104998003FE0CDF81C80B046C3E712220021204634
:1049A80017F0A4FE00B208B10025E2E70125E0E710
:1049B80000252EE000252CE008FB05F3B4F8802044
:1049C800013A93FBF2F3ADF87C3019FA83F31BB28A
:1049D800ADF87C30ADF87830164B0A9302230B9370
:1049E8001FAF12970DF1780BCDF84CB0179509AAA7
:1049F8001A2120460CF064F95B463A461BA930465A
:104A080003F060FE09AA1B2120460CF059F9013574
:104A18002DB25545D0DB4FF0FF3317930023129387
:104A2800139309AA1B2120460CF04AF9019BB36095
:104A380096E600BF709F020870B50D4606E0214655
:104A4800304611F0CCFD204611F080FFAB6A6BB107
:104A580005F12406304611F080FD0446037B13F06F
:104A6800040FECD1406811F071FFE8E705F124006C
:104A780011F0F7FD0CE005F13006304611F06DFD40
:104A880004460146304611F0AAFD204611F05EFFAB
:104A98006B6B002BEFD105F1300011F0E2FD70BD1A
:104AA80010B50C46102104F1240011F010FD10215E
:104AB80004F1300011F00BFD0023A4F86C30A4F8C9
:104AC8007430A4F86E30A4F876306422A4F870200C
:104AD800A4F87820A4F87220A4F87A200322A4F875
:104AE8007E200522A4F880200A22A4F8822047F616
:104AF800FF72A4F87C2094F88820012161F3020257
:104B080084F88820D2B263F3C30284F888204FF473
:104B18008073A4F88430A4F8863010BD31B190F8C1
:104B2800883013F0080F02D148897047FEE700204B
:104B3800704700002DE9F04FBFB081460D4600F1E7
:104B480014048A6821463CA8FCF750FF002854D07A
:104B5800D5F808A03CAB0A95AB60B9F88230012BB8
:104B68004BD932220021484617F0C0FD07461222D1
:104B78000021484617F0BAFDBFB217FA80F6B6B260
:104B880010220021484617F0B1FD17FA80F5ADB2A2
:104B9800484614F0B3FDB9F8843003FB00F040F345
:104BA8000F230193484614F0C9FDB9F8863003FB7A
:104BB80000F00312119340F30F230493B9F8143053
:104BC8001E44B6B2484616F07BF980B2361AB3B224
:104BD80009930FFA86FBB9F816301D44ADB2484662
:104BE80016F00EF980B22D1AABB203930A9A9268A6
:104BF800214638A8FCF7FAFE10B93FB0BDE8F08F9F
:104C080035A803F04AFD35AA4FF4A021484614F010
:104C18004CFA27A805F018F827AA4FF4003148469F
:104C280014F04CF801224FF40031484617F05EFDAD
:104C3800C0F3C03303FA80F04FEA600804224FF44F
:104C48000031484617F052FDC0F3C03303FA80F034
:104C580043100E931A464345A8BF4246BDF9D630C5
:104C680003EBD371B2EB610F05DD9DF8DD2042F057
:104C780010028DF8DD20012B09D0B9F882300B9392
:104C880009F12405284611F06CFC07460EE19DF851
:104C9800DD3043F010038DF8DD30EEE713460133C5
:104CA800ADF8EA30D5E089B21FFA88F3CA1AADF830
:104CB8004C201944ADF85010BDF81400BDF8383038
:104CC800C21AADF84E201844ADF85200069B013BBD
:104CD80023937B68029A540033F9122047F6FF7336
:104CE8009A4200F0C4803BAB1E937B6833F91520D1
:104CF80047F6FF739A4200F0BC803AAB1F9313ABA0
:104D080018937B681B5F259315AA1A2148460BF058
:104D1800D7FF7B68195F47F6FF72914206D033F9D7
:104D2800152047F6FF739A4240F0A580B8F1000FAE
:104D380008D00E9B33B17B681A5F47F6FF739A421F
:104D480040F0A08015AA1B2148460BF0B9FF013698
:104D5800B6B20295B9F88220B24240F29980BDF904
:104D6800E810ADF8EC10BDF9EA300593ADF8EE3077
:104D7800BAF9043043440133994200F38980069616
:104D8800019B06FB03F3541E93FBF4F3099C234495
:104D98001FFA83FE1BB2ADF8E830089CA51995FBF5
:104DA800F2F402FB14552DB2D7F804C03CF91540B3
:104DB8003A7BC2F3001202F1340B09EB4B0BBBF93F
:104DC80004B0A4EB0B04049800FB04F4383239F95E
:104DD8001220A2EB0B0294FBF2F40798041B039831
:104DE80010FA84F424B2ADF8EA40BAF90020A2EB34
:104DF8000802013A9342AADB002EA8D00B98019A28
:104E08009042FFF650AF029A3CF9120047F6FF7243
:104E180090429CD03CF91500904298D00C9AA2423E
:104E2800B8BF22460C920D98A042A8BF20460D900C
:104E380099428CD00EF1FF3E0FFA8EFEADF8E8E0F5
:104E4800ADF8ECE0ADF8EE00ADF8EA2082423FF4B0
:104E580025AF3AAB3BAA35A90A9803F033FCBDF954
:104E6800E8300133ADF8E8300C940D946FE7002377
:104E78003AE7002342E73AAB3BAA35A90A9803F080
:104E880021FC53E713AA27A90A9804F01FFF59E742
:104E98000F9DDDF840B00B9B01998B4201DAB242BD
:104EA80053D03946284611F064FB0746002F00F01E
:104EB80083803B7B13F0010FF3D13B89ADF8D430ED
:104EC800ADF8A03039464846FFF728FE04B20894EA
:104ED800ADF8ECB0ADF8E8B07B6833F914303A7B44
:104EE800C2F3001202F1340109EB4101B1F90410D7
:104EF8005B1A049800FB03F3383239F91220521A6E
:104F080093FBF2F3BDF844200792D31A039A12FADE
:104F180083F3ADF8EA300A9915A814F0D4F9284BB0
:104F28001693032317934FF4A023229335AB1B93B7
:104F380027AB19932697BDF9EA300D930C93029489
:104F480000260F95CDF840B004E77B68029833F946
:104F5800102047F6FF739A42A3D0BDF8E8301FFA35
:104F680088F2991AADF84C101344ADF85030BDF8DA
:104F7800EA30BDF83820991AADF84E101344ADF850
:104F88005230013E239600231E931F9313AC1894AE
:104F98007B6833F91030259315AA1A2148460BF07F
:104FA8008FFE224627A90A9804F090FE15AA1B2115
:104FB80048460BF085FE74E70A9BC3F808A01CE678
:104FC800709F02082DE9F04FAFB006460C460491D9
:104FD8008A6800F114012CA8FCF708FD10B92FB05D
:104FE800BDE8F08FD4F808B02CABA36012220021E2
:104FF800304617F07BFB054610220021304617F09B
:1050080075FB0446304614F079FBB6F8843000FB93
:1050180003F343F30F230693304614F08FFBB6F8DF
:10502800863000FB03F31A12019243F30F22039216
:1050380006F12407384611F02AFB81461522002183
:10504800304617F053FB03B2B6F8842002FB03F393
:105058001B12B6F882104A1E069803FB120393FB34
:10506800F1F31BB2079315224FF4A021304617F035
:105078003DFB0FFA80F8B6F8843003FB08F84FEAD6
:10508800282809F1FF33079A03FB1823B3FBF9F328
:105098001BB20093002B41DD32220021304617F06D
:1050A80025FB8146304615F00BFF83B2EB1A1FFA39
:1050B80089F919FA83F39DB2304615F0A1FE83B23F
:1050C800E31A19FA83F39BB202931CA804F0BCFDFF
:1050D8001CAA4FF4A021304613F0F0FD9DF87F3054
:1050E80023F007038DF87F30FF238DF87330738B1F
:1050F800BDF870201344ADF8AE3004990AA814F036
:10510800E2F84FF4A0231793584B0B9304230C9306
:105118004FF0000A0895CDF824B083E001230093EE
:10512800BAE70DF1A809CDF834901CAD0E951B9483
:10513800636833F910301A930AAA1A2130460BF023
:10514800BFFD4A462946049804F0C0FD0AAA1B215F
:1051580030460BF0B5FDD14600E0D1462146384631
:1051680011F007FA0446002C56D0237B13F0010FE8
:10517800F4D121463046FFF7D1FC00B2ADF8A89033
:105188001FFA89F2BDF800A002EB0A039BB2013BAB
:105198001BB2ADF8AC30C24412FA8AFA0FFA8AFA96
:1051A800BDF9B0209342D8DBBDF9B4304B4533DBB1
:1051B8002389ADF874305844B6F8823090FBF3F286
:1051C80003FB120000B2D4F804C03CF91030217B74
:1051D800C1F3001101F1340506EB4505B5F904509A
:1051E8005B1B039A02FB03F3383136F91110491B94
:1051F80093FBF1F3019AD31AF18A11FA83F3029A15
:1052080012FA83F3ADF8AA303CF9102047F6FF7381
:105218009A4286D1D146A1E7DDF814A00AF1010A25
:105228001FFA8AFAB6F88220524519D9069B0799BF
:105238005B1AD3460AFB03F3013A93FBF2F3B6F881
:1052480014909944089B13FA89F90FFA89F9CDF853
:1052580060A0384611F085F90446CDF814A082E71D
:10526800DDF824B0049BC3F808B0B8E6709F0208C4
:105278002DE9F04FB7B007460C4608918A6800F14F
:10528800140134A8FCF7B2FB10B937B0BDE8F08FB1
:10529800D4F808A034ABA36032220021384617F0B6
:1052A80025FA044612220021384617F01FFA06464E
:1052B80010220021384617F019FA0546384614F02E
:1052C8001DFAB7F8843003FB00F040F30F23049372
:1052D800384614F033FAB7F8863003FB00FB4FEA80
:1052E8002B2302934BF30F230593BB8A1E44A4B2CE
:1052F80014FA86F6B6B2384615F0E2FD80B2361AD0
:105308001FFA86FB33B20A93FB8A2B4414FA83F400
:10531800A4B2384615F074FD80B2241AA3B20393E0
:105328002FA803F0BAF92FAA4FF4A021384613F09A
:10533800BCFE21A804F088FC21AA4FF400313846AD
:1053480013F0BCFC01224FF40031384617F0CEF9B7
:10535800C0F3C03303FA80F04410069404224FF4DB
:105368000031384617F0C2F9C0F3C03303FA80F0B1
:105378004310079322469C42A8BF1A46BDF9BE3087
:1053880003EBD371B2EB610F05DD9DF8C52042F048
:1053980010028DF8C520012B08D007F124084046DB
:1053A80011F0DFF80646CDF82CA007E19DF8C530CE
:1053B80043F010038DF8C530EFE7336833F91A006E
:1053C800337BC3F3C00303F1380107EB410103F159
:1053D8003C02049B0093002337F91220B1F9041012
:1053E80011F051FAADF8C8001BFA80F0ADF8C8000A
:1053F800736833F91A00337BC3F3001303F13401E4
:1054080007EB410103F13802059B0093002337F9AC
:105418001220B1F9041011F036FAADF8CA0083B2BF
:10542800029AD31AADF8CA30039A12FA83F3ADF888
:10543800CA30E5E0002380E0002388E00FAA1B21A2
:1054480038460BF03DFC0135ADB2A146B7F88230C5
:10545800AB4240F2AB80BDF9C820ADF8CC20BDF915
:10546800CA20ADF8CE200AEB050494FBF3F203FB47
:10547800124424B2736833F9140047F6FF73984254
:10548800E1D0337BC3F3001303F1340107EB41018F
:1054980003F13802059B0093002337F91220B1F974
:1054A800041011F0F0F9ADF8CA0080B2029B181A86
:1054B800ADF8CA00039B13FA80F0ADF8CA00336850
:1054C80033F91400337BC3F3C00303F1380107EB4E
:1054D800410103F13C02049B0093002337F9122099
:1054E800B1F9041011F0CFF9ADF8C8001BFA80F03B
:1054F800ADF8C800002DA6D0BDF8CC30BDF81820F6
:10550800991AADF834101344ADF83830BDF8CE30E0
:10551800BDF81C20991AADF836101344ADF83A308E
:105528006B1E1D9373684FEA490833F9192047F633
:10553800FF739A423FF47EAF33AB1893736833F925
:10554800142047F6FF739A423FF476AF32AB1993B3
:105558000DAB1293736833F908301F930FAA1A2101
:1055680038460BF0ADFB736833F9081047F6FF7245
:1055780091423FF463AF33F9142047F6FF739A4220
:105588003FF45CAF32AB33AA2FA9089803F09AF81E
:10559800069B002B3FF452AF079B002B3FF44EAF06
:1055A8000DAA21A9089804F091FB47E7DDF82480AB
:1055B8003BD03146404610F0DCFF0646002E6AD04C
:1055C800337B13F0010FF4D13389ADF8BC30ADF85B
:1055D800883031463846FFF7A1FA0FFA80FA0A9B5D
:1055E800ADF8CC30ADF8C830736833F91A300A2BEF
:1055F8007FF4E3AE4EF20103ADF8C830ADF8CA301F
:1056080008990FA813F05FFE4FF4A0231C93254BB5
:105618001093032311932FAB159321AB139320966B
:10562800D1460025CDF8248010E7736833F9192096
:1056380047F6FF739A42BCD0BDF8C830BDF81820B1
:10564800991AADF834101344ADF83830BDF8CA30A3
:10565800BDF81C20991AADF836101344ADF83A304D
:10566800013D1D950023189319930DAC129473688E
:1056780033F919301F930FAA1A2138460BF020FB73
:10568800224621A9089804F021FB0FAA1B213846BD
:105698000BF016FB8DE7DDF82CA0089BC3F808A0DB
:1056A800F3E500BF709F020888B12DE9F04F89B07B
:1056B8000F4615461C46064651B1B0F88230934253
:1056C80007D800232380638009B0BDE8F08FFEE788
:1056D800FEE714F013F8B6F8843003FB00F848F33B
:1056E8000F28304614F02AF8B6F8863003FB00F984
:1056F8004FEA292A49F30F2996F8883003F007035F
:10570800012B52D0032B59D0022B6ED0322200210C
:10571800304616F0EBFF0FFA80F8122200213046CF
:1057280016F0E4FF08FA80F22388134423803046F9
:1057380015F0C6FB238882B29B1A2380394630466F
:10574800FFF7ECF90544B6F8823095FBF3F203FB5A
:1057580012557A68ABB232F913303A7BC2F30012B1
:1057680002F1340106EB4101B1F904105B1A09FB9F
:1057780003F3383236F91220521A93FBF2F3AAEBEC
:10578800030AA4F802A010220021304616F0AEFF4A
:1057980008FA80F2638813446380304615F030FBC2
:1057A800638882B29B1A63808EE705FB08F3B6F81C
:1057B8008220013A93FBF2F32380A7E73B6833F991
:1057C80015003B7BC3F3C00303F1380106EB41012D
:1057D80003F13C02CDF80080002336F91220B1F91C
:1057E800041011F050F8208090E706F124039B463E
:1057F800184610F04CFF039015224FF4A0213046B4
:1058080016F074FF03B2B6F8842002FB03F31A12F1
:10581800049215220021304616F068FF03B2B6F84C
:10582800842002FB03F31B1219460593B6F8822065
:10583800531E01FB138393FBF2F31AB20692CDF8C1
:1058480008B0584610F08DFE01464FF0000B079443
:10585800029C41B1B94206D00BF1010B204610F071
:1058680088FE0146F5E7079C059B434405FB03F3C7
:10587800B6F8822093FBF2F3238006980BFB00F224
:105888000399B2FBF1F212FA83F31FFA83FCA4F82E
:1058980000C04A1E049B02FB1302B2FBF1F2C2F3E2
:1058A800C03101FA82F20CEB620323802EE700007C
:1058B8002DE9F04FBFB00546884600F1300948464B
:1058C80010F0F5FE009010B13FB0BDE8F08F05F183
:1058D8001402D8F808103CA8FCF788F802900028B1
:1058E800F2D0D8F808703CABC8F8083037A802F0F6
:1058F800D4FE37AA4FF4E021284613F0D6FB29A896
:1059080004F0A2F99DF8E4308DF8A73047F6FF734C
:10591800ADF8A43001224FF4E021284616F0E6FE47
:10592800C0F3C03303FA80F04FEA600A01224FF453
:10593800E021284616F0DAFEC0F3C03303FA80F0FF
:1059480043100193414606A813F0BDFC26AB0C9307
:1059580018AB0A934FF4E0231393674B079305237F
:105968000893484610F0FDFD0446039774E0B4F927
:10597800042047F6FF739A4269D004AB92B2A1683B
:105988002846FFF791FEBDF91070BDF9123081E08D
:1059980000230993DDF800B0237B13F0030F25D013
:1059A80013F0010F00D13A46ADF8EC20ADF8EE60E7
:1059B80013F0020F02D0B5F9183000E03B46ADF8FD
:1059C800E830ADF8EA6006AA1A2128460BF078F903
:1059D8003AAB3BAA26A9404602F074FEBBF1000F81
:1059E80010D106AA1B2128460BF06AF9237B13F075
:1059F8000C0F2CD0ADF8EC7013F0040F08D0B5F9EB
:105A0800162006E004AA18A9404604F05FF9E8E762
:105A18003246ADF8EE20ADF8E87013F0080F01D06B
:105A2800B5F91A60ADF8EA6006AA1A2128460BF003
:105A380047F93AAB3BAA26A9404602F043FEBBF120
:105A4800000F4FD106AA1B2128460BF039F9214631
:105A5800484610F08EFD0446002C49D00A2237A98A
:105A680026A811F03DF8382229A918A811F038F80D
:105A7800E388ADF89830ADF864303BAB0F933AABA0
:105A88001093637B13F0010F3FF471AFB4F900700A
:105A9800B4F90230B5F9142017FA82F7B9B23FB257
:105AA800EE8A1E44B3B236B2BAF1000F3FF470AFBB
:105AB800019800283FF46CAF1FFA8AF0A1EB000CA4
:105AC800ADF810C00144ADF81410BDF80410581A10
