:020000040800F2
:1000000000000220F9B50208A1070008A3070008B4
:10001000A5070008A7070008A907000800000000BE
:10002000000000000000000000000000AB07000816
:10003000AD07000800000000AF070008B107000886
:1000400049B6020849B6020849B6020849B602088C
:1000500049B6020849B6020849B6020849B602087C
:1000600049B6020849B6020849B6020849B602086C
:1000700049B6020849B6020849B6020849B602085C
:1000800049B6020849B6020849B6020849B602084C
:1000900049B6020849B6020849B6020849B602083C
:1000A00049B6020849B6020849B6020849B602082C
:1000B00049B6020849B6020849B6020849B602081C
:1000C00049B6020849B6020849B60208C107000845
:1000D00049B6020849B6020849B6020849B60208FC
:1000E00049B6020849B6020849B6020849B60208EC
:1000F00049B6020849B6020849B6020849B60208DC
:1001000049B6020849B6020849B6020849B60208CB
:1001100049B6020849B6020849B6020849B60208BB
:1001200049B6020849B6020849B60208D1070008D4
:1001300049B6020849B6020849B6020849B602089B
:1001400049B6020849B6020849B6020849B602088B
:1001500049B6020849B6020849B6020849B602087B
:1001600049B6020849B6020849B6020849B602086B
:1001700049B6020849B6020849B602080000000064
:0801800049B6020849B6020865
:1001880010F8012B11F8013B012A28BF9A42F7D039
:10019800D01A7047034613F8012B002AFBD1181A0E
:1001A8000138704753B94AB9002908BF00281CBF55
:1001B8004FF0FF314FF0FF3000F00CB8ADF1080CF4
:1001C8006DE904CE2BF072FADDF804E0DDE90223D4
:1001D80004B07047704700BF10B5054C237833B999
:1001E800044B13B10448AFF300800123237010BD02
:1001F800A0000020000000007CB9020808B5034BED
:100208001BB103490348AFF3008008BD000000009C
:10021800A40000207CB90208F8B51546B1F90630EB
:10022800B1F90270DE1B0136B1F90420B1F9000002
:10023800141A01349BB292B2B9B280B200F05FFBDB
:100248000F4F00220421384601F06AF801220221EA
:10025800384601F065F814FB06F46400A2B229469A
:10026800084801F055FD074B9B6C93F83530DBB21D
:10027800012BF8D101220421014801F051F8F8BD01
:10028800000002408865002008B500F067FB08BD43
:1002980038B5FFF7F9FF0C4D4FF4C8530B4A0C491A
:1002A80028461EF0EFF80B4C20461EF0C1F84FF41C
:1002B800A0732380F0236380074B6361E5602046C9
:1002C8001EF0EEF838BD00BF0C650020BC320020DF
:1002D800BC000020BC6400202102000808B50248C8
:1002E8001EF0C5F908BD00BFBC64002000B583B08E
:1002F80000210191094B1A6B42F480021A631B6BAF
:1003080003F480030193019B0A463B2000F09CFC08
:100318003B2000F0D1FC03B05DF804FB003802403C
:100328002DE9F04F8DB000240794089409940A949D
:100338000B940194794B1A6B42F010021A631A6BF2
:1003480002F010020192019A02941A6B42F0040220
:100358001A631A6B02F004020292029A03941A6B4F
:1003680042F080021A631A6B02F080020392039A29
:1003780004941A6B42F001021A631A6B02F001022C
:100388000492049A05941A6B42F002021A631A6BDB
:1003980002F002020592059A06941A6B42F00802CE
:1003A8001A631B6B03F008030693069B5C4F2246F7
:1003B8000821384600F0B4FFDFF86C91012211469D
:1003C800484600F0ADFFDFF864B122464FF2100155
:1003D800584600F0A5FF22460A21384600F0A0FF43
:1003E800504E01220421304600F09AFF0A23079359
:1003F8000125089509940A9407A9304600F09AFE49
:100408004FF0040ACDF81CA0089509940A9407A98E
:10041800304600F08FFE4FF00808CDF81C80089594
:1004280009940A9407A9384600F084FE07950895B0
:1004380009940A9407A9484600F07CFECDF81C8070
:100448004FF00208CDF8208009940A9405230B93F5
:1004580007A9484600F06EFE07954FF490130893DD
:10046800099407A9304600F065FECDF81CA0089451
:100478000994A9F5806907A9484600F05BFE4FF486
:1004880080630793CDF8208009940A9405230B9381
:1004980007A9484600F04EFE4FF21003079308954F
:1004A80009940A9407A9584600F044FE4FF40073D3
:1004B80007930894099407A9304600F03BFE4FF4CF
:1004C800E0530793CDF8208009940A940A230B93EC
:1004D80007A9304600F02EFE2023079308940994BC
:1004E80007A9584600F026FE4FF41073079312230D
:1004F800089309950A94CDF82CA007A9484600F05E
:1005080019FECDF81C804FF490130893099407A99D
:10051800384600F00FFE0DB0BDE8F08F00380240FD
:10052800001002400000024000080240000C024097
:1005380008B51EF057F801F03FFD08BD72B6FEE79A
:1005480000B595B03022002108A82BF09FF80023B1
:10055800039304930593069307930193214A116C1F
:1005680041F080511164126C02F080520192019A9C
:1005780002931D4B1A6842F480421A601B6803F408
:1005880080430293029B012308934FF4803309931D
:1005980002230E934FF480020F92082210924FF418
:1005A800A872119212930723139308A800F0BEFEB5
:1005B80098B90F23039302230493002305934FF460
:1005C800A05306934FF480530793052103A801F025
:1005D80017F920B915B05DF804FBFFF7AFFFFFF777
:1005E800ADFF00BF003802400070004010B500F0B9
:1005F800D9FAFFF7A5FFFFF793FEFFF777FE00F0A4
:100608002BF802F063FDFFF743FEFFF791FF00228E
:100618004CF6012107F0E1FBFFF78AFF00224FF0BB
:10062800FF3107F0EFFBFFF783FF3C224FF47A71AD
:100638001DF040FA04464022114603F007FE00234D
:100648001A460521204603F067FE20F0E5FD052047
:1006580000F0D4FAF9E7000008B50F480F4B036023
:100668004FF4827343604FF4004383600023C360F8
:10067800036143614FF4007282610822C261036220
:10068800436283620A23C36201F006FA00B908BD17
:10069800FFF754FFFBE700BF8865002000300140EA
:1006A80030B589B000230393049305930693079309
:1006B8000268254B9A4201D009B030BD0446002596
:1006C800019503F584335A6C42F480525A645A6C8B
:1006D80002F480520192019A02951A6B42F00102CB
:1006E8001A631B6B03F001030293029BE02303933D
:1006F800022304930523079303A9144800F01AFD65
:100708001348144B03604FF0C06343604023836079
:10071800C5604FF48063036145618561C561056209
:10072800456200F06BFB58B9094BA3649C63002237
:100738001146232000F088FA232000F0BDFABBE719
:10074800FFF7FCFEF0E700BF003001400000024068
:10075800286500205864024000B583B0002100914C
:100768000C4B5A6C42F480425A645A6C02F4804230
:100778000092009A01911A6C42F080521A641B6C24
:1007880003F080530193019B072000F04BFA03B05C
:100798005DF804FB00380240FEE7FEE7FEE7FEE7EF
:1007A800FEE770477047704708B501201DF086FFC7
:1007B80000F012FA08BD000008B5024801F068FB15
:1007C80008BD00BF8865002008B5024800F0C4FBDA
:1007D80008BD00BF28650020034AD2F8883043F4DA
:1007E8007003C2F88830704700ED00E010B582B0A1
:1007F8008DF807000C4C00220421204600F090FDE3
:1008080000220221204600F08BFD4FF0FF33012229
:100818000DF10701054801F09EF901220421204647
:1008280000F07EFD02B010BD000002408865002087
:1008380010B582B08DF807000C4C00220421204628
:1008480000F06EFD01220221204600F069FD4FF004
:10085800FF3301220DF10701054801F07CF901225F
:100868000421204600F05CFD02B010BD00000240EB
:100878008865002070B506460D46114C00220421FB
:10088800204600F04DFD01220221204600F048FDDF
:100898000DE04FF6FF74AC4228BF2C46A4B20A23E1
:1008A80022463146074801F056F926442D1B002DF3
:1008B800EFD101220421024800F032FD70BD00BFD3
:1008C800000002408865002010B504463620FFF776
:1008D8008DFF032C06D8DFE804F002060A0EC020BC
:1008E800FFF7A6FF10BDA020FFF7A2FFFAE7002040
:1008F800FFF79EFFF6E76020FFF79AFFF2E7F0B5F3
:1009080083B007460D4616461C462A20FFF76EFFA1
:100918003B0A8DF804308DF80570330A8DF80630DF
:100928008DF8076004210DEB0100FFF7A3FF2B20D2
:10093800FFF75CFF2B0A8DF804308DF80550230A69
:100948008DF806308DF8074004210DEB0100FFF704
:1009580091FF2C20FFF74AFF03B0F0BD10B53220FD
:1009680000F04CF97B4C01220221204600F0D8FC13
:10097800322000F043F900220821204600F0D0FC84
:10098800192000F03BF901220821204600F0C8FC9C
:10099800192000F033F93620FFF728FF0020FFF771
:1009A80047FF3A20FFF722FF0520FFF741FF2120EC
:1009B800FFF71CFF2A20FFF719FF0020FFF738FF79
:1009C8000020FFF735FF0120FFF732FF3F20FFF738
:1009D8002FFF2B20FFF70AFF0020FFF729FF002039
:1009E800FFF726FF0020FFF723FFEF20FFF720FF88
:1009F800B220FFF7FBFE0C20FFF71AFF0C20FFF7D1
:100A080017FF0020FFF714FF3320FFF711FF3320F3
:100A1800FFF70EFFB720FFF7E9FE3520FFF708FFC5
:100A2800B720FFF7E3FE1F20FFF702FFC020FFF704
:100A3800DDFE2C20FFF7FCFEC220FFF7D7FE0120C9
:100A4800FFF7F6FEC320FFF7D1FE1220FFF7F0FEF6
:100A5800C420FFF7CBFE2020FFF7EAFEC620FFF7F1
:100A6800C5FE0F20FFF7E4FED020FFF7BFFEA4204D
:100A7800FFF7DEFEA120FFF7DBFEE020FFF7B6FE62
:100A8800D020FFF7D5FE0820FFF7D2FE1120FFF790
:100A9800CFFE0820FFF7CCFE0C20FFF7C9FE15207B
:100AA800FFF7C6FE3920FFF7C3FE3320FFF7C0FE6D
:100AB8005020FFF7BDFE3620FFF7BAFE1320FFF7E0
:100AC800B7FE1420FFF7B4FE2920FFF7B1FE2D2052
:100AD800FFF7AEFEE120FFF789FED020FFF7A8FE62
:100AE8000820FFF7A5FE1020FFF7A2FE0820FFF759
:100AF8009FFE0620FFF79CFE0620FFF799FE39208F
:100B0800FFF796FE4420FFF793FE5120FFF790FE73
:100B18000B20FFF78DFE1620FFF78AFE1420FFF743
:100B280087FE2F20FFF784FE3120FFF781FE21206A
:100B3800FFF75CFE1120FFF759FE1320FFF756FE62
:100B48002920FFF753FE322000F058F80320FFF762
:100B5800BBFE10BD0000024010B504460E4B1A78CB
:100B68004FF47A73B3FBF2F30C4A1068B0FBF3F05E
:100B780000F0B0F868B90F2C01D901200AE0002272
:100B880021464FF0FF3000F05FF8054B1C60002055
:100B980000E0012010BD00BF04000020000000207C
:100BA8000800002008B50B4B1A6842F400721A605E
:100BB8001A6842F480621A601A6842F480721A60F5
:100BC800032000F02FF80020FFF7C6FFFFF7C4FD51
:100BD800002008BD003C0240034A1168034B1B7803
:100BE8000B441360704700BFE0650020040000203C
:100BF800014B1868704700BFE065002038B504460F
:100C0800FFF7F6FF0546B4F1FF3F02D0044B1B780F
:100C18001C44FFF7EDFF401BA042FAD338BD00BFCC
:100C280004000020074AD36823F4E0631B041B0C6C
:100C3800000200F4E060034343F0BF6343F4003371
:100C4800D360704700ED00E000B5194BDB68C3F3D3
:100C58000223C3F1070CBCF1040F28BF4FF0040CAA
:100C680003F1040EBEF1060F18D9033B4FF0FF3E07
:100C78000EFA0CFC21EA0C0199400EFA03FE22EA56
:100C88000E020A4300280BDB1201D2B200F16040C9
:100C980000F5614080F800235DF804FB0023E5E7D8
:100CA80000F00F001201D2B2024B1A54F4E700BF51
:100CB80000ED00E014ED00E0002807DB00F01F0263
:100CC800400901239340024A42F82030704700BF90
:100CD80000E100E00138B0F1807F0BD24FF0E02353
:100CE8005861054AF02182F82310002098610722F4
:100CF8001A6170470120704700ED00E030B40568C4
:100D08002C6824F480242C60046863608368402B7A
:100D180005D0036899600368DA6030BC70470368DF
:100D28009A600368D960F8E710B40368D9B210393B
:100D38000C4AA2FB014212090B4CA25CC2655F2956
:100D480009D923F47F7323F0030304338365806D8B
:100D58005DF8044B704723F47F7323F00303836526
:100D6800F5E700BFABAAAAAABCB90208836A8269E0
:100D780092B9012B0AD0022B02D00BB10020704788
:100D8800C36A13F0807F28D100207047C36AB3F18B
:100D9800C07F24D000207047B2F5005F09D0022B35
:100DA80025D9032B25D1C36A13F0807F23D10020D6
:100DB8007047032B03D8DFE803F01404140A00205B
:100DC8007047C36A13F0807F0DD100207047C36A53
:100DD800B3F1C07F09D0002070470120704701207F
:100DE800704701207047012070470120704701209B
:100DF80070470020704701207047000070B5044616
:100E0800FFF7F6FE002C5BD00546022384F8353048
:100E1800002384F834302268136823F00103136038
:100E280023681A6812F0010F0AD0FFF7E1FE431B8E
:100E3800052BF5D920236365032084F8350070BDA0
:100E48001A68204911406268A0680243E0680243BA
:100E58002069024360690243A0690243E0690243D2
:100E6800206A02430A43616A04291ED01A60266870
:100E7800756925F00705636A1D43042B07D1A36A2A
:100E88001D43E36A1BB12046FFF770FF90B97561F7
:100E98002046FFF749FFE26D3F239340836000201F
:100EA8006065012384F83530C9E7E16A206B0143A6
:100EB8000A43DBE740236365012084F83500BEE779
:100EC8000120BCE73F8010F038B50446856D90F8E6
:100ED800340001282BD0012084F8340094F8350020
:100EE800C0B2012804D0002384F83430022038BD71
:100EF800022084F83500002060652046FFF7FEFEDA
:100F0800E26D3F239340AB602268136843F01603F9
:100F18001360236C23B12268136843F0080313603D
:100F28002268136843F0010313600020DFE7022002
:100F3800DDE790F83530DBB2022B03D08023436520
:100F480001207047052380F835300268136823F0C4
:100F58000103136000207047F0B583B004460023F6
:100F68000193724B1D68724BA3FB0535AD0A876D63
:100F78003E68C26D08239340334210D003681A6854
:100F880012F0040F0BD01A6822F004021A60C26D26
:100F980008239340BB60436D43F001034365E26D52
:100FA80001239340334209D02268526912F0800F1E
:100FB80004D0BB60636D43F002036365E26D0423F4
:100FC8009340334209D02268126812F0020F04D00D
:100FD800BB60636D43F004036365E26D10239340C7
:100FE800334224D02268126812F0080F1FD0BB6069
:100FF80023681A6812F4802F0DD01B6813F4002F91
:1010080004D1236C9BB12046984710E0A36C73B1C0
:10101800204698470BE01A6812F4807F03D11A68BB
:1010280022F008021A60236C0BB120469847E26D43
:1010380020239340334255D02268126812F0100FD3
:1010480050D0BB6094F83530DBB2052B0ED0236846
:101058001A6812F4802F33D01B6813F4002F2AD19A
:10106800636C002B3ED0204698473BE0226813680B
:1010780023F0160313602268536923F08003536139
:10108800236CA3B12268136823F008031360E26D90
:101098003F239340BB60012384F83530002384F854
:1010A8003430236D002B3FD0204698473CE0A36C9A
:1010B800002BE7D1EBE7E36BA3B12046984711E09B
:1010C8001A6812F4807F09D11A6822F010021A6097
:1010D800012384F83530002384F83430E36B0BB1F6
:1010E80020469847636DFBB1636D13F0010F17D06D
:1010F800052384F835302268136823F00103136050
:10110800019B01330193AB4204D823681B6813F099
:10111800010FF5D1012384F83530002384F83430E9
:10112800E36C0BB12046984703B0F0BD00000020E7
:10113800B5814E1B00230F2B00F2E98070B582B0F9
:1011480065E085684FEA430E032404FA0EF425EAA5
:101158000405CC6804FA0EF42C438460446824EA3D
:1011680002044A68C2F300129A40224342605CE0DB
:10117800DC08083450F8242003F00705AD004FF0D0
:101188000F0E0EFA05FE22EA0E0E0A69AA4042EA7E
:101198000E0240F824205CE0072200E0002202FA58
:1011A8000EF22A4302345A4D45F82420594A9468CD
:1011B8006FEA0C0224EA0C054E6816F4801F01D071
:1011C8004CEA0405534CA560E46802EA04054E683D
:1011D80016F4001F01D04CEA04054E4CE560646823
:1011E80002EA04054E6816F4003F01D04CEA0405F3
:1011F800484C6560246822404D6815F4803F01D052
:101208004CEA0402434C226001330F2B7DD80122A3
:101218009A400C6804EA020C32EA0404F4D14C68DF
:1012280004F00304013C012C8BD94A6802F0030244
:10123800032A09D0C4685D000322AA4024EA0204F4
:101248008A68AA402243C2604A6802F00302022A5E
:101258008ED004684FEA430E032202FA0EF224EA03
:1012680002044A6802F0030202FA0EF22243026004
:101278004A6812F4403FC7D000220192264A546CB3
:1012880044F480445464526C02F480420192019AFE
:101298009C08A51C1E4A52F8255003F0030E4FEA7D
:1012A8008E0E0F2202FA0EF225EA02051B4A904220
:1012B8003FF474AF02F5806290421AD002F5806262
:1012C800904218D002F58062904216D002F58062F2
:1012D800904214D002F58062904212D002F58062EA
:1012E800904210D002F5806290423FF455AF082238
:1012F80055E7012253E7022251E703224FE7042270
:101308004DE705224BE7062249E702B070BD70475A
:1013180000380140003C0140003802400000024013
:101328000AB181617047090481617047002800F0A3
:10133800E08170B582B00446036813F0010F3BD01A
:101348009F4B9B6803F00C03042B2CD09C4B9B6891
:1013580003F00C03082B21D06368B3F5803F4FD00E
:10136800B3F5A02F52D0964B1A6822F480321A6037
:101378001A6822F480221A606368002B50D0FFF7A5
:1013880037FC05468E4B1B6813F4003F14D1FFF75A
:101398002FFC401B6428F5D90320B1E1884B5B681A
:1013A80013F4800FD8D0864B1B6813F4003F03D08A
:1013B8006368002B00F09F81236813F0020F54D05C
:1013C8007F4B9B6813F00C0F3ED07D4B9B6803F05E
:1013D8000C03082B33D0E368002B68D0794B01222B
:1013E8001A60FFF705FC0546754B1B6813F0020FE2
:1013F80054D1FFF7FDFB401B0228F5D903207FE1FC
:101408006F4A136843F480331360B5E76C4B1A686E
:1014180042F480221A601A6842F480321A60ABE7FC
:10142800FFF7E6FB0546664B1B6813F4003FC3D085
:10143800FFF7DEFB401B6428F5D9032060E1604B11
:101448005B6813F4800FC6D15D4B1B6813F0020F65
:1014580003D0E368012B40F05081594A136823F008
:10146800F803216943EAC1031360236813F0080FE6
:1014780042D063696BB3534B0122C3F8802EFFF748
:10148800B7FB05464E4B5B6F13F0020F34D1FFF7E5
:10149800AFFB401B0228F5D9032031E1484A136805
:1014A80023F0F803216943EAC1031360DDE7454BE4
:1014B80000221A60FFF79CFB0546414B1B6813F09E
:1014C800020FD2D0FFF794FB401B0228F5D9032066
:1014D80016E13C4B0022C3F8802EFFF789FB054636
:1014E800374B5B6F13F0020F06D0FFF781FB401BF1
:1014F8000228F5D9032003E1236813F0040F77D0FD
:101508002F4B1B6C13F0805F33D1002301932C4BBE
:101518001A6C42F080521A641B6C03F080530193DA
:10152800019B0125284B1B6813F4807F23D0A368F7
:10153800012B34D0052B38D0214B1A6F22F0010231
:101548001A671A6F22F004021A67A368002B3DD0AD
:10155800FFF74EFB06461A4B1B6F13F0020F46D1DE
:10156800FFF746FB801B41F288339842F3D90320EA
:10157800C6E00025D6E7144A136843F48073136065
:10158800FFF736FB0646104B1B6813F4807FCED15D
:10159800FFF72EFB801B0228F5D90320B0E0084A8C
:1015A800136F43F001031367CFE7054B1A6F42F03F
:1015B80004021A671A6F42F001021A67C5E700BFF2
:1015C800003802400000474200700040FFF710FB5F
:1015D8000646524B1B6F13F0020F08D0FFF708FBAB
:1015E800801B41F288339842F3D9032088E0EDB993
:1015F800A369002B00F08380484A926802F00C022D
:10160800082A51D0022B17D0454B00221A66FFF743
:10161800EFFA0446414B1B6813F0007F42D0FFF7F6
:10162800E7FA001B0228F5D9032069E03B4A136C4E
:1016380023F080531364DBE7394B00221A66FFF767
:10164800D7FA0546354B1B6813F0007F06D0FFF725
:10165800CFFA401B0228F5D9032051E0E369226A3A
:101668001343626A43EA8213A26A5208013A43EAC0
:101678000243E26A43EA0263284A5360284B012284
:101688001A66FFF7B5FA0446244B1B6813F0007F6F
:1016980006D1FFF7ADFA001B0228F5D903202FE089
:1016A80000202DE000202BE0012B2BD01B4B5B688A
:1016B80003F48001E269914226D103F03F02216AD6
:1016C8008A4223D1616A47F6C0721A40B2EB811F81
:1016D8001ED103F44031A26A5208013AB1EB024F1D
:1016E80018D103F07063E26AB3EB026F14D10020E3
:1016F80006E001207047012002E0012000E0002000
:1017080002B070BD0120FBE70120F9E70120F7E7EF
:101718000120F5E70120F3E70120F1E70038024056
:101728000000474208B5334B9B6803F00C03042BB9
:101738005BD0082B5BD12F4B5A6802F03F025B68E5
:1017480013F4800F2CD02B4B5868C0F388104FEA45
:10175800401CBCEB000C6EEB0E0E4FEA8E1343EAF6
:101768009C634FEA8C11B1EB0C0163EB0E03DB00B9
:1017780043EA5173C90011EB000C43F1000359020D
:1017880000234FEA4C2041EADC51FEF70BFD194BD0
:101798005B68C3F3014301335B00B0FBF3F027E060
:1017A800144B5868C0F388104FEA401CBCEB000C7F
:1017B8006EEB0E0E4FEA8E1343EA9C634FEA8C11D0
:1017C800B1EB0C0163EB0E03DB0043EA5173C90074
:1017D80011EB000C43F10003990200234FEA8C201F
:1017E80041EA9C51FEF7DEFCD1E7034800E00348DC
:1017F80008BD00BF0038024000127A000024F4003F
:10180800002800F09B8070B50D4604464F4B1B68BE
:1018180003F007038B4208D2CBB24C4A137013680B
:1018280003F007038B4240F08B80236813F0020F0C
:1018380017D013F0040F04D0454A936843F4E053DB
:101848009360236813F0080F04D0414A936843F467
:10185800604393603E4A936823F0F003A1680B430A
:101868009360236813F0010F32D06368012B21D0F5
:101878009A1E012A25D9364A126812F0020F61D041
:1018880033498A6822F0030213438B60FFF7B0F9EB
:1018980006462F4B9B6803F00C036268B3EB820F7C
:1018A80016D0FFF7A5F9801B41F288339842F0D98A
:1018B800032042E0264A126812F4003FE0D10120DA
:1018C8003BE0234A126812F0007FD9D1012034E0AE
:1018D8001E4B1B6803F00703AB4207D9EAB21B4B48
:1018E8001A701B6803F00703AB422DD1236813F06D
:1018F800040F06D0164A936823F4E053E1680B43BB
:101908009360236813F0080F07D0114A936823F4F3
:101918006043216943EAC1039360FFF703FF0C4B5F
:101928009B68C3F303130B4AD35CD8400A4B186077
:101938000A4B1868FFF710F9002070BD01207047A6
:101948000120FAE70120F8E70120F6E7003C024011
:1019580000380240ACB9020800000020080000204E
:101968002DE9F04782B00546884617461E46FFF720
:101978003FF90A9B1B1A03EB0609FFF739F9824660
:101988002A4B1B68C3F3CB3309FB03F301932B6882
:101998009C6838EA04040CBF01230023BB4240D0F2
:1019A800B6F1FF3FF3D0FFF723F9A0EB0A00484553
:1019B8000AD2B9F1000F07D0019A02B14A46019B39
:1019C800013B01939146E2E72A68536823F0E0035C
:1019D80053606B68B3F5827F0BD0AB6AB3F5005FD9
:1019E80014D0012385F85130002385F850300320A6
:1019F80018E0AB68B3F5004F02D0B3F5806FECD1B7
:101A08002A68136823F040031360E6E72A6813681E
:101A180023F4005313602A68136843F400531360D7
:101A2800DFE7002002B0BDE8F08700BF000000201B
:101A380010B584B00446164B1868164BA3FB00304B
:101A4800400D4FF47A7303FB00F003906368B3F51D
:101A5800827F0BD0039BBBB1039B013B039323689D
:101A68009B6813F0800FF5D100200EE000920B4622
:101A7800002280212046FFF773FF30B1636D43F0E9
:101A880020036365032000E0002004B010BD00BF00
:101A980000000020819F5E1600285AD010B5044629
:101AA800436A33B94368B3F5827F05D00023C36125
:101AB80002E00023036143610023A36294F85130DC
:101AC800002B40D0022384F851302268136823F099
:101AD80040031360636803F48273A26802F404424B
:101AE8001343E26802F400621343226902F002021F
:101AF8001343626902F001021343A26902F40072FF
:101B08001343E26902F038021343226A02F08002AA
:101B18001343A26A02F40052216813430B60638BDB
:101B280003F00403626A02F01002216813434B6059
:101B38002268D36923F40063D36100206065012320
:101B480084F8513010BD84F850302046FEF7A8FDC7
:101B5800B8E7012070472DE9F04383B01D4690F89F
:101B68005030012B00F0D18004468846914601236D
:101B780080F85030FFF73CF8074694F85160F6B209
:101B8800012E40F0AF80B8F1000F00F0AC80B9F141
:101B9800000F00F0A880032384F851300023636508
:101BA800C4F83080A4F83490A4F83690A363A387CF
:101BB800E38763642364A368B3F5004F1ED02368EA
:101BC8001A6812F0400F03D11A6842F040021A60F6
:101BD800E368B3F5006F1CD0636813B1B9F1010F66
:101BE80052D1226B236812781A73236B0133236353
:101BF800E38E9BB2013B9BB2E38645E02268136803
:101C080023F0400313602268136843F48043136091
:101C1800D5E7636813B1B9F1010F16D1226B2368B8
:101C28001288DA60236B02332363E38E9BB2013B95
:101C38009BB2E38609E0FEF7DBFFC01BA84202D394
:101C4800B5F1FF3F59D1002D59D0E38E9BB2002B3F
:101C580033D023689A6812F0020FECD0226B1288F6
:101C6800DA60236B02332363E38E9BB2013B9BB2A2
:101C7800E386EAE7FEF7BCFFC01BA84202D3B5F132
:101C8800FF3F3ED1002D3ED0E38E9BB2ABB123681F
:101C98009A6812F0020FEDD0226B12781A73236B38
:101CA80001332363B4F836C01FFA8CFC0CF1FF3CF7
:101CB8001FFA8CFCA4F836C0E6E73A4629462046C7
:101CC800FFF7B6FE08B120236365A36833B9019313
:101CD8002368DA6801929B680193019B636D13B9CD
:101CE800002600E00226012384F85130002384F8FE
:101CF8005030304603B0BDE8F0830326F3E70326EF
:101D0800F1E70326EFE70326EDE70226F1E70000F7
:101D180038B590F85030012B61D00446012380F883
:101D2800503090F85150EDB29D4252D1002951D017
:101D3800002A4FD0032380F8513000234365016304
:101D48008286C2868363436403648387C387836808
:101D5800B3F5004F2AD0A36C224A1A64A36C224A16
:101D6800DA63A36C214ADA64A36C00221A6522683C
:101D7800E38E9BB20C32216BA06CFFF7A5F80146ED
:101D8800F8B923681A6812F0400F03D11A6842F0B4
:101D980040021A602268536843F0200353602268A7
:101DA800536843F0020353600D4613E0026813685A
:101DB80023F0400313600268136843F48043136000
:101DC800C9E7636D43F010036365012384F851305C
:101DD80000E00225002384F85030284638BD02254B
:101DE800FBE700BFFB1D0008291E0008071E0008AE
:101DF800704708B5806BFFF7FBFF08BD704708B553
:101E0800806B0268536823F003035360436D43F00B
:101E180010034365012380F85130FFF7EFFF08BD39
:101E280030B583B00546846BFEF7E2FE2B681B686D
:101E380013F4807F23D1024621684B6823F02003E6
:101E48004B6021684B6823F002034B6064212046F5
:101E5800FFF7EEFD18B1636D43F020036365A368D7
:101E680033B901932368DA6801929B680193019B57
:101E78000023E386012384F85130636D23B920469B
:101E8800FEF72CFA03B030BD2046FFF7B7FFF9E79D
:101E980010B584B0044602685168936803F04100A5
:101EA800012867D013F0020F02D011F0800F68D11B
:101EB80013F4B07F68D011F0200F65D013F0400FF5
:101EC8000FD094F85100C0B203285FD0606D40F085
:101ED8000400606500200090D06800909068009031
:101EE800009813F0200F0CD0606D40F00100606581
:101EF8000020029090680290106820F04000106066
:101F0800029A13F4807F09D0636D43F00803636578
:101F18000023039323689B680393039B636D002B43
:101F280032D02268536823F0E0035360012384F819
:101F3800513011F0030F31D02268536823F00303A6
:101F48005360E36C4BB1174A1A65E06CFEF7F1FF7A
:101F580018B1636D43F040036365A36CA3B1114AE4
:101F68001A65A06CFEF7E5FF70B1636D43F040039E
:101F7800636509E011F0400F94D0236C2046984720
:101F880002E0636C2046984704B010BD002301931B
:101F9800D368019393680193019BF5E72046FFF707
:101FA8002DFFF1E7B11F000808B5806B0023C38738
:101FB800C386FFF723FF08BD08B5034610B12BB150
:101FC800186908BD1CF00EFB0346F8E71846F8E749
:101FD80008B5034610B12BB1586908BD1CF002FBC7
:101FE8000346F8E71846F8E708B5034610B12BB1E1
:101FF800D86908BD1CF0F6FA0346F8E71846F8E772
:1020080008B5034610B12BB1186A08BD1CF0EAFAEE
:102018000346F8E71846F8E708B5034608B1986894
:1020280008BD1CF0DFFA0346F9E708B5034638B1E6
:1020380053B1D3F854010028D4BF0020012008BDB3
:102048001CF0D0FA0346F3E70020F8E7806858B19F
:10205800837E03F03F038B4205D9C06801EB410141
:1020680000EB81007047002070470000037E13F0EA
:10207800040F1ED110B50446037A233B012B01D867
:10208800012010BD4FF48041406801F0AEF80028EF
:10209800F7D0237A113BDBB21B2B94BF002101211F
:1020A80049B9064A22FA03F313F0010FE9D00846AA
:1020B800E7E7002070470846E3E700BFFF270F0B5C
:1020C80010B50C4608B1006803E04B68186800E0DA
:1020D800006810B10369002BFAD060B1036963B1DD
:1020E8000023E360036921469847237E13F0010F1C
:1020F80005D1012010BD0120FCE70120FAE70020EE
:10210800F8E7F8B5064600F001FB58B100688368A7
:102118000BB1317A9847337E13F0020774D113F06C
:10212800010F5BD100217068FFF790FF044600257E
:1021380011E06368F360236830469847337E13F0F4
:10214800020763D113F0010F48D1013529467068A1
:10215800FFF77CFF04467CB12368002BF5D0237A77
:1021680094F90820002AF0DA802BE2D023F08003CB
:10217800327A9342E9D1DCE731460020FFF7A0FF2D
:10218800074620B100217068FFF760FF044600256C
:1021980011E06368F360236830469847337E13F094
:1021A80002021BD113F0010F32D1013529467068A4
:1021B800FFF74CFF04467CB1012F0DD12368002B9B
:1021C800F3D0227A94F90830002BEEDB002AE0D015
:1021D800337A9A42E9D1DCE7012F01D03846F8BDBD
:1021E80073685B68002BF9D03046FFF73FFF002883
:1021F800F4D073685B6873603046FFF782FF074668
:102208000128EBD00027E9E70127E7E70127E5E701
:102218001746E3E718B310B588B0019002908DF81F
:102228000C100023049305929DF81C2063F3000210
:102238008DF81C20D2B263F382028DF81C20D2B232
:1022480063F341028DF81C20064C2368069301A80D
:102258002060FFF756FF069B236008B010BD0120E1
:10226800704700BFE4650020006870474068704709
:10227800007A00F07F00704700697047C0687047B7
:10228800084B1B6804E01A7E42F001021A765B696B
:1022980033B15A688242F6D01A688242F7D1F2E71F
:1022A800704700BFE46500202DE9F04104460F4661
:1022B80016461D4601F01EFAA1688B7E03F03F0208
:1022C800013262F305038B76D4F8088098F81A1067
:1022D80001F03F0101EB41018900D8F80C001DF025
:1022E800FFFCC8F80C00A368DA684AB39B7E03F0C9
:1022F8003F0303EB43039B000C3BD750A368DA680A
:10230800997E01F03F0101EB41039B000C3B134414
:102318001E72A268D368927E02F03F0202EB42026C
:1023280092000C3A13445D60A368D8689B7E03F062
:102338003F0303EB43039B000C3B1844BDE8F081CB
:10234800FEE708B5037A013BDBB20F2B02D8FFF793
:1023580093FF08BD0020FCE708B5027AA2F1140338
:10236800DBB2022B05D9182A03D0172A01D0192A63
:1023780002D1FFF781FF08BD0020FCE7037A132B89
:1023880000D0704710B50C46FFF776FFB0F9003063
:10239800A342B8BF2346038010BDF8B50546002008
:1023A8001CF07EF904460026374605E026462746F7
:1023B80020461CF075F904465CB1204600F0ACF9E3
:1023C800636DAB42F4D102280ED00428EED0264625
:1023D800EEE70FB13846F8BD0EB13746FAE70020F0
:1023E8001CF05EF90746F5E72746F3E72DE9F047C5
:1023F800037F13F0010F6FD106468A469146C568E0
:102408004FF001080027E5B1012357B32BB1294646
:102418003046C8470546874269D0002DF3D0286862
:1024280000F0EFFE10F0800FEDD12C68ECB1012127
:10243800204600F0DAFEC0B9204605F0FFFC04464D
:10244800F4E7337F13F0080F01D1002F49D1B8F119
:10245800000F43D03046D04705464FF000084346AA
:10246800D3E7002D40D02F46D0E72CB101212046DC
:1024780000F0BBFE0028C6D1F368AB423AD08BB15E
:102488001C683046FFF789FF02460F212046FFF7F8
:10249800C1FE012802D04FF000081FE0F368186859
:1024A80002F079FBF5602C683046FFF776FF0246AC
:1024B8000E212046FFF7AEFE012802D04FF000089B
:1024C8000CE0F368186802F066FB3369ABB130467C
:1024D80098474FF0010801E04FF000084046BDE87A
:1024E800F0874FF00008F9E74FF00008F6E74FF0E3
:1024F8000008F3E74FF00008F0E74FF00108EDE7B8
:1025080008B5202101481DF08FF908BD3C6900205D
:10251800014B1868704700BFE865002010B50446F5
:10252800054A0649FFF762FF63691BB110B901212B
:102538002046984710BD00BFCDF80108BDF8010836
:1025480010B50446054A0649FFF750FF63691BB1F9
:1025580010B900212046984710BD00BFD5F80108E2
:10256800C5F8010838B50446037FC3F3C00543F036
:1025780008030377DBB213F0040F06D1FFF7CEFF91
:10258800237F65F3C303237738BDFFF7D9FFF7E748
:1025980070B5064600F03DFE002849D00546C368E0
:1025A80013B11B68B34213D0EB6813B11B68B34275
:1025B80030D028461DF07EF90446002C38D0236818
:1025C800B3422AD0214628461DF07CF90446F4E798
:1025D800037F13F0010F03D0037F6FF3000303772A
:1025E80028461DF067F9EB68834203D02846FFF7B9
:1025F800B9FFD9E728461DF061F9EB688342F5D1A8
:102608001C682846FFF7C9FE02460F212046FFF73F
:1026180001FEC9E70023EB60CBE7214628461DF001
:102628008BF920461DF040FBB3680BB100229A607D
:1026380070BD002839D070B50C4605460846FFF72E
:10264800A7FF28461DF036F9014639B10B68A342A9
:102658001ED028461DF036F90146F6E7204600F060
:10266800D8FD30B1A3689B681BB1DB681B68A34227
:102678000FD0A36883B1A3689D6028461DF0FBF8BE
:10268800064668B1046028461DF014F9864208D051
:1026980070BDFFF767FFECE7204601F02BF8EAE78B
:1026A800FEE72846FFF75EFFF2E7704718B1C068FB
:1026B80008B1006870477047F8B170B50446037FE9
:1026C800C3F340038B4213D0037F61F341030377C5
:1026D800FFF7ECFF054658B1E3681E682046FFF790
:1026E8005CFE02460E213046FFF794FD012800D01B
:1026F80070BD284602F04FFAFAE7704718B1007F1C
:10270800C0F340007047002070470000014B186874
:10271800704700BFEC65002010B103681878704757
:102728000020704710B50C4630B30346427942F09A
:1027380002024271254A1268824206D01A6812784B
:10274800013AD2B2012A04D910BD214A00211160F0
:10275800F4E714B15A6BA24201D100225A6314B1B2
:102768009A6AA24201D100229A6214B1DA6AA2429C
:10277800EAD10022DA62E7E700201BF091FF03E0CC
:102788000023C3621BF08CFFD8B1437943F00203E6
:10279800437103681B78013BDBB2012BF2D814B1FB
:1027A800436BA34201D10023436314B1836AA3425C
:1027B80001D100238362002CE2D0C36AA342E1D195
:1027C800DEE7034B00221A60BEE700BFEC6500207D
:1027D800F065002010B5044643796FF30003437198
:1027E8001BF078FFE0641BF075FFA06410BD034682
:1027F80050B102681278012A0AD0032A08D04FF68D
:10280800FF730B804B80704700230B804B80704711
:10281800B3F908200A80B3F90A304B8070470346A1
:1028280050B102681278012A01D0032A06D193F820
:10283800440000F00F0070470020704700207047E8
:10284800034638B102681278012A01D0032A02D15E
:10285800186B704770470020704700230B804B802F
:10286800034658B102681278012A01D0032A05D11B
:10287800B3F918200A80B3F91A304B80704718B1A1
:10288800437943F00803437170470000014B18680F
:10289800704700BFF06500200246E0B1032907D069
:1028A8000C291AD1B0F926301268517E00200FE0A9
:1028B800B0F92430F8E7184400B2C1F1640202FB11
:1028C80003F3074A82FB03C2DB17C3EB62131BB295
:1028D800002BF0D17047002070470020704700BFE0
:1028E8001F85EB5138B505460C46084609F0DAF95C
:1028F80021224FF48031284604F041FDC0B2E07037
:1029080002283BD831224FF48031284604F037FDA5
:10291800C0B284F82200022838D845224FF480310A
:10292800284604F02CFDC0B284F83600022843D8AB
:102938004FF48031284605F0CFF9FC280DD8E3780C
:1029480000FB03F3C3F30723E37003FB00F0C0F3BA
:10295800072084F8220084F83600E3782BB994F82D
:10296800223013B994F8360038B10B224FF4803175
:10297800284604F004FD2080012038BD20224FF4B1
:102988008031284604F0FBFCA080BBE732224FF4DC
:102998008031284604F0F3FC00B22084002803DCD0
:1029A800002384F82230B8E730224FF480312846DB
:1029B80004F0E5FCE083B0E740224FF4803128467C
:1029C80004F0DDFC00B2E085002803DC002384F875
:1029D8003630ADE743224FF48031284604F0CFFC6F
:1029E800A08644224FF48031284604F0C8FCA08514
:1029F8009EE7000070B5A4B004460D4620AA22A99F
:102A080003F022FD22A81CF0BFF818B920A81CF07A
:102A1800BBF828B112A92046FFF764FF012801D0AE
:102A280024B070BD2946684601F0D6FA1B4B0193C5
:102A38000223029312AB04934FF480330D9322A820
:102A48001CF0A2F8B8B920A81CF09EF80028E7D01E
:102A580020AE03966A461A212046FFF7DBFB039651
:102A6800324612A9284609F045F96A461B21204634
:102A7800FFF7D0FBD4E722AE03966A461A21204618
:102A8800FFF7C8FB324612A9284609F033F96A460F
:102A98001B212046FFF7BEFBD5E700BFC4B90208DB
:102AA8002DE9F041A2B00646FFF7E2FB05463046A5
:102AB800FFF7DAFB0446122D07D0152D66D0182D26
:102AC80000F0F88022B0BDE8F0813046FFF7D4FB73
:102AD80005460378022BF5D017220021204604F082
:102AE8004EFC10B102232B70ECE70B22002120468C
:102AF80004F045FC07B269220021204604F03FFC9F
:102B080006466A220021204604F039FCB4F9141064
:102B1800ADF84010B4F91620ADF84220B4F918E029
:102B2800ADF844E0B4F91AC0ADF846C0B3B2C91A5A
:102B3800ADF840107344ADF8443080B2121AADF8C5
:102B480042206044ADF846003A4610A968681CF077
:102B58007BF910B901232B70B4E72122002120460C
:102B680004F00DFCC0B2FC2802D801232B70A9E7A1
:102B780060220021204604F002FCC3B2FC2B02D9DB
:102B880000232B709EE701232B709BE73046FFF74D
:102B9800E3FB064602A809F085F834220021204606
:102BA80004F0EDFB28B19DF82B3043F001038DF8BC
:102BB8002B3002AF3A460021204600F0BDFE6922C4
:102BC8000021204604F0DBFB05466A22002120464E
:102BD80004F0D5FBB4F91410ADF80010B4F91620C0
:102BE800ADF80220B4F918E0ADF804E0B4F91AC061
:102BF800ADF806C0ABB2C91AADF800107344ADF811
:102C0800043083B2D21AADF802206344ADF806301E
:102C1800314610A801F0E0F9644B11930025129594
:102C28001497CDF84CD01D9510AA1A212046FFF70D
:102C3800F1FA17222946204604F0A1FB20B1BDF97C
:102C480008309BB92B4600E00023069F1D460BB1B8
:102C5800002306936A4602A9304609F04BF83DB9AD
:102C680010AA1B212046FFF7D5FA2BE70123ECE732
:102C780018201DF04DF805460023BDF9082004F181
:102C8800140108F063FF04F59071284608F038FD38
:102C9800002FE5D000238DF80B308DF82A308DF801
:102CA80032308DF83E3006976A4602A9304609F060
:102CB80021F8D5E73046FFF74FFB05460146204689
:102CC800FFF798FE17220021204604F058FB002841
:102CD8005FD134220021204604F051FB00283FF444
:102CE800F1AE02AF384608F0DDFF00268DF80B6024
:102CF8008DF822608DF832608DF83E603A46314694
:102D0800204600F019FE69223146204604F037FBC0
:102D180080466A223146204604F031FBB4F914108B
:102D2800ADF80010B4F91620ADF80220B4F918E097
:102D3800ADF804E0B4F91AC0ADF806C01FFA88F37C
:102D4800C91AADF800107344ADF8043080B2121AF5
:102D5800ADF802206044ADF80600294610A801F03D
:102D68003BF9124B1193012312931497CDF84CD0D1
:102D78001D9610AA1A212046FFF74CFA6A463946D2
:102D8800284608F0B7FF10AA1B212046FFF742FA91
:102D980098E604F5907008F009FD0646002898D0DA
:102DA80008F01EFD30461DF015F892E7C4B9020878
:102DB8002DE9F0410C464D6825B3284602F0F0FE97
:102DC8000646284602F08CFE0746B5F81680102203
:102DD8000021284604F0D3FA18FA80F39BB2DB1BD3
:102DE8009AB2E382531E6383AF8A122200212846D7
:102DF80004F0C5FA17FA80F39BB2981B83B2A0823D
:102E0800013B23830223E36141F20203E36115B12D
:102E180043F20203E3611DB1E36943F44073E361E4
:102E2800E36943F00402E26143F01402E26143F013
:102E38003402E26143F07403E36143F40063E36145
:102E480015B143F40043E361BDE8F0812DE9F04F8B
:102E58008DB00691038C09938B4207D082460A46AF
:102E68000184194604F0BFF8089010B90DB0BDE808
:102E7800F08F4FF420701CF04BFF83464FF4207105
:102E88001DF0CCF800231E469946CDF80CA043E06F
:102E980014F4004F3AD114F4804F03D16B680A93AD
:102EA800012336E01DF07AFE0A90F9E70022C8797E
:102EB80082422ED2086800EBC20530F83240C4F3D3
:102EC8000D006728E4D00132F1E711F4004F65D115
:102ED80011F4804F04D157F822300A93012318E0E7
:102EE8001DF05CFE0A90F9E7C2F30D00672810D1C7
:102EF80012F4004F54D112F4804F03D10B680A9397
:102F0800012306E01DF04AFE0A90F9E7022300E0DB
:102F18002346012B46D00136039B5B8CC3F3051374
:102F2800B34240F2C180B9F11F0F00F29280039BB7
:102F3800DD68F40005EBC6070797786820F07F4046
:102F480004F04FF880460590039BDB6823445868DB
:102F580020F07F4004F07BF982464346069A93436B
:102F6800D9D1FB7913F00203D5D129598A884FF6B4
:102F7800FF7082429AD0CC79002CC9D0012CB3D9E9
:102F88000F6807EB840500229442C2D935F8121065
:102F9800C1F30D00672898D00132F5E70223B8E79E
:102FA8000223B6E7DDF82880002304930B965646E3
:102FB80020E00134A14518D904EB84050BEB850505
:102FC8006F68384604F00DF80290384604F03FF96F
:102FD8002A89D8F8003033F80A309A42E9D1864273
:102FE800E7D1059B029A9342E3D8A1450FD0049BF1
:102FF80001330493D8F80030049A4FEA420A33F8B0
:10300800123023B3B9F11F0F1FD80024D2E7D8F824
:103018000C1009EB89020BEB82032BF82210D8F86D
:1030280010205A80D8F80820DA60D8F8002032F842
:103038000A201A81D8F804201A61079A5268C2F344
:1030480017025A6009F10109D1E70B9E63E70B9E4D
:1030580061E7DDF80CA00024099E069F0EE004EB52
:1030680084050BEB8505686804F0F1F801460095C6
:103078003B463246504604F0F9F90134A145EED8F2
:1030880058461CF0A7FE089B012B13D0089B032B66
:1030980014D0089B022B7FF4E9AE504601F07BFD6B
:1030A800504600F0A8FFE1E6DDF80CA00024099ED8
:1030B800069FE3E7504601F06EFDD7E64FF6FF7234
:1030C8004FF47021504604F093FACFE608B5124B3E
:1030D8001B7803B108BD1CF0BBFD1EF055F91CF0B0
:1030E80087FA1BF003FCFFF70BFA06F03FFB03F02F
:1030F80049FF4FF4B47109481CF096FB5C2108485D
:103108001CF092FB05F0DAFC09F02AFB11F06EF9CD
:10311800014B01221A70DDE7F4650020A068002049
:103128008069002010B50146034800F02DFB0446D5
:1031380000F0C9FB204610BDC4B9020870B584B0C0
:1031480004460D4601F08CF8064615F0100F15D10F
:10315800E36923EA0503E36115F0010F1CD120465A
:1031680001F07EF8B04202D115F0C07F04D02046AD
:1031780004F064FE01F08EF804B070BD02AA69463E
:10318800204603F061F96946204601F0DCFC02A9FB
:10319800204601F0D8FCDBE7204601F0FCFC204685
:1031A80001F05EF80028DAD0204604F047FE01F06E
:1031B80071F8204601F06EF8D1E708B5038C43EAB0
:1031C800010231EA030300D108BD1146FFF73EFEB4
:1031D800FAE708B5028CCB431BB202EA03019A4313
:1031E80000D108BDFFF732FEFBE7C36999430CBF66
:1031F800012000207047C3690B4214BF0120002042
:103208007047008C7047038C0B4214BF01200020CC
:103218007047806800B180687047F0B585B00E4689
:103228000846FFF725F804463046FFF71FF805461D
:10323800012C2CD0033C272C2CD8DFE814F05200AA
:103248002B002B002B002B002D0067016B012B009E
:103258002B006400360182012B002B00DB01D30117
:103268002B00DB012B002B00DB012B002B002B009C
:103278002B002B002B002B002B002B00A6012B0072
:10328800CA012B002B002B002B00860156002021A1
:10329800FFF793FF05B0F0BD2021FFF79AFF3046F6
:1032A800FFF74FF8FFF7CCFA0028F3D1082128469A
:1032B800FFF79BFF0028EDD02846FFF7A2FF10F08C
:1032C800010F09D101212846FFF777FF00221C21B1
:1032D8002846FEF79FFFDDE701212846FFF779FF23
:1032E800F4E72021FFF775FFD4E704F0E6FD064672
:1032F8000024B442CED2AB681B6853F8240000F017
:10330800C9FF0134F5E70821FFF76FFF00283ED118
:103318004FF401612846FFF768FF0028BAD0284615
:1033280000F0ABFA0028B5D1284602F039FC074670
:10333800284602F0A7FC04463046FEF79DFF0378B6
:10334800122B42D0112B54D0132B66D0142BA1D1A1
:10335800284602F09DFB10F0030F00F09080002F2C
:1033680002DC002C40F38B80284602F0A9FB84B2D3
:10337800284601F031F802460028C0F29480A4EBF8
:10338800A201002209B2284602F056FE82E7304622
:10339800FEF772FF0478132C0AD0112C08D0142CD5
:1033A80001D0122C08D101212846FFF712FF03E0B3
:1033B80001212846FFF701FF0A2C3FF46BAF0022DA
:1033C8001C212846FEF726FF64E7284602F080FB0A
:1033D80084B2284601F007F80246002807DB04EB10
:1033E800A201002209B2284602F03AFE52E7C21CA6
:1033F800F5E7284602F06CFB84B2284600F0F3FF9C
:103408000246002807DBA4EBA201002209B22846E5
:1034180002F026FE3EE7C21CF5E7284602F038FB1C
:1034280010F0030F15D0002F01DC002C11DD284609
:1034380002F046FB84B2284600F0CEFF0246002880
:103448001BDB04EBA201002209B2284602F0F4FDBE
:1034580020E7284602F03CFB84B2284600F0C3FF70
:103468000246002807DB04EBA201002209B2284625
:1034780002F0F6FD0EE7C21CF5E7C21CE1E728469C
:1034880002F026FB84B2284600F0ADFF0246002871
:1034980007DBA4EBA201002209B2284602F0E0FDF6
:1034A800F8E6C21CF5E7C21C69E74FF48061FFF734
:1034B8009CFEB0B92846FFF7ACFEFFF71FF904469B
:1034C800FFF724F990B1FFF727F9022812D0042852
:1034D80012D0022194B141F008012846FFF76DFE91
:1034E800D8E60121284602F08FFFE3E73046FEF7D1
:1034F80028FFE8E70621EDE70621EBE72846FFF776
:103508005CFE08212846FFF764FEC3E64021FFF76A
:1035180054FEBFE64021FFF75CFE284602F0B0FAF1
:1035280002287FF4B7AE02AA6946284602F08CFF4B
:103538006946284601F007FB02A9284601F003FB6B
:10354800A8E60E21FFF745FEA4E60922002103F0B4
:1035580016FFC4B20A220021284603F010FF80B2E9
:1035680000B914B1284600F095FE284604F0A5FCE1
:1035780006460024B442BFF48DAEAB681B6853F80E
:10358800240000F087FE0134F4E70122002103F053
:10359800F6FE07B204220021284603F0F0FE06B228
:1035A80009220021284603F0EAFEC4B20A220021BB
:1035B800284603F0E4FE80B238B934B942F2D17338
:1035C8009F4202D09E427FF465AE284600F062FE1C
:1035D80060E690F8223043F0020380F8223000F0D1
:1035E80059FE57E6002100F08BFC01463046FEF7F5
:1035F800C5FE4FE63046FFF753FA4BE610B50C46CA
:103608000846FEF73DFE002003F0C4FC144A0021E2
:10361800204604F041FA012003F0BCFC00212046BA
:103628001BF098F92046FFF7F4FD10B12046FEF78D
:10363800AFFFA3689BB1186820B11CF035FBA368E5
:1036480000221A60A368D86820B11CF02DFBA3687B
:103658000022DA60A0681CF027FB0023A36010BDDD
:10366800FFFF0F00F0B585B004460D4600F0F8FDE9
:10367800064615F001072AD1E3692B43E3618FB1B0
:1036880002212046FFF7BFFD60B12046FFF7C1FDCC
:10369800074638B1FEF742FF3846FFF707F808B18A
:1036A80001F079FA204600F0DBFDB04202D115F0B6
:1036B800C07F07D0204604F0C1FB00F0EBFD204698
:1036C80000F0E8FD15F0100F05D105B0F0BD20465B
:1036D80001F061FAD0E702AA6946204602F0B4FE7A
:1036E8006946204601F02FFA02A9204601F02BFA7C
:1036F800EBE70000836803B1704710B504460C4A35
:103708001368013313601C201CF0B0FAA06068B184
:103718001C211CF083FCA268537E43F00F035376F0
:10372800A268137E43F00303137610BDFEE700BFC3
:10373800F865002028B10068884214BF00200120E5
:1037480070470020704738B5044605682B6813B1E8
:103758000360FFF7F8FF25606B6813B12146284620
:10376800984738BD00E0006820B18269054B1340D6
:10377800002BF8D018B18069C0F30F1070470020F3
:10378800704700BFF0FF0F00F8B505460C46FFF77D
:10379800E9FF06461CF06AFA0746F0B131461CF00C
:1037A8003DFC3D607C60D4B1A368002B47D0A56880
:1037B8002B68002B47D06B6801336B60A56869687C
:1037C800890028681CF08CFA2860A3681A685B686E
:1037D80003F18043013B42F823703846F8BD1AF0E4
:1037E80001FF0446F0B1C06808B3616A0131616243
:1037F80089001CF075FAE060636A03F18043013BBD
:1038080040F823700024BC82FC8220461AF0F0FEA7
:1038180080B20138388320461AF002FF80B201389E
:103828007883DAE738461CF03FFA2746D5E70420C4
:103838001CF01CFAE060076001236362E2E720469F
:10384800FFF758FFB3E704201CF010FA2860A368BC
:103858001B681F60A36801225A60BEE710B50446C2
:10386800006883680BB12146984723681B681BB121
:1038780023602046FFF7F2FF10BD036800E01B68D5
:103888001BB11A7E12F0030FF9D03BB1187E00F07D
:103898000300012814BF0020012070470020704752
:1038A800036800E01B681BB11A7E12F00C0FF9D0F8
:1038B8003BB1187E00F00C00042814BF0020012042
:1038C80070470020704738B5044600F0E3FC00203C
:1038D80003F060FB204605F02DFF2046FFF733FF7D
:1038E800012003F057FB4FF6FF724FF4702120467A
:1038F80003F07EFE204600F0A3FFFEF709FE20B18C
:1039080005462046FFF7CCFF88B9204604F096FA12
:10391800054658B122462221FEF77CFC2246232187
:103928002846FEF777FC204601F035F938BD2146D8
:103938002846FEF77EFEE8E7F8B506460D4614462B
:1039480004F0CAF907460DB102284FD9002D57D106
:103958000B222946304603F012FD2080E378002B25
:1039680055D132222946304603F009FD00B22084A1
:1039780020B194F82230002B40F0A7803522294648
:10398800304603F0FCFC00B2E08420B194F82A3001
:10399800002B40F0BC80A37E002B40F0D58094F82B
:1039A8003630002B40F01581FC2F1ED8E37807FB3A
:1039B80003F31B12E370A37E07FB03F31B12A3762A
:1039C80094F8223007FB03F31B1284F8223094F892
:1039D8002A3007FB03F31B1284F82A3094F8363098
:1039E80003FB07F73F1284F83670F8BD0023E37035
:1039F800A37684F8223084F82A3084F83630F4E745
:103A080068222946304603F0BAFCA070A0E72122BC
:103A18002946304603F0B3FCC0B2E0700228A0D9B2
:103A280020222946304603F0AAFC024629463046A1
:103A380003F0C0FDA08026222946304603F09FFCF3
:103A4800014618B1437A13F0070F16D123222946ED
:103A5800304603F094FCE37B60F30203E373DBB2CC
:103A680013F0070F0ED127222946304603F087FCB2
:103A7800E37B60F3C503E37373E70A22A01D1CF020
:103A8800DFF96EE720222946304603F078FC02462B
:103A98002946304603F08EFDE08022222946304632
:103AA80003F06DFC02462946304603F083FD608131
:103AB80024222946304603F062FC2072252229463A
:103AC800304603F05CFC2073CDE7312229463046AE
:103AD80003F055FCC0B284F8220002287FF64EAFEE
:103AE80033222946304603F04AFC94F8233060F329
:103AF800450384F8233030222946304603F03FFC42
:103B080002462946304603F055FDE08336E7372262
:103B18002946304603F033FCC0B284F82A00022854
:103B28007FF639AF38222946304603F028FC208535
:103B380036222946304603F022FC02462946304602
:103B480003F038FDA08426E728222946304603F0F2
:103B580016FC206100283FF422AF2922294630466E
:103B680003F00DFCC0B2A07602287FF618AF2069DA
:103B780006F0DCF802281AD02A222946304603F03B
:103B8800FEFB02462946304603F014FD20832B2213
:103B98002946304603F0F3FBE0762C2229463046CE
:103BA80003F0EDFB003818BF01202077F7E6572215
:103BB8002946304603F0E3FB60615522294630462A
:103BC80003F0DDFB02462946304603F0F3FC208370
:103BD800E5E640222946304603F0D1FB00B2E085F5
:103BE80000283FF4E1AE94F83630022B7FF6DCAEC5
:103BF80045222946304603F0C2FBC0B284F836009D
:103C080002287FF6D1AE41222946304603F0B7FBA1
:103C1800208642222946304603F0B1FB60864322C3
:103C28002946304603F0ABFBA0864422294630469D
:103C380003F0A5FB02462946304603F0BBFCA085ED
:103C4800B2E670B506460D461446562203F097FBB9
:103C5800C3B2A376022B00D870BD2946304604F0C3
:103C68003BF8022837D9FC2804D8A37E03FB00F0D0
:103C78000012A076A37E022BEED9552229463046A3
:103C880003F07DFB02462946304603F093FCA081F1
:103C980058222946304603F072FBA0825922294651
:103CA800304603F06CFB60825A222946304603F006
:103CB80066FBA37F60F30203A3777DB957222946E9
:103CC800304603F05CFB20605B222946304603F057
:103CD80056FB2077C0E70023A376BDE76822294674
:103CE800304603F04CFBA37F60F3C503A377E5E7F9
:103CF80070B505460E461446462203F040FBC3B293
:103D0800E372022B00D870BD3146284603F0E4FF69
:103D1800022838D9FC2804D8E37A03FB00F0001203
:103D2800E072E37A022BEED9002323804FF48073EC
:103D380063802B8BAA8A9B1A9BB20133C3F3C032D0
:103D480002FA83F35B10A3806B8BEA8A9B1A9BB2FF
:103D58000133C3F3C03202FA83F35B10E3804822D5
:103D68003146284603F00BFBC0B2A07270B9002E92
:103D7800C9D068223146284603F001FB237B60F353
:103D880003032373BFE70023E372BCE747223146EE
:103D9800284603F0F4FA02463146284603F00AFCA6
:103DA8002081E4E770B506460D4614464E2203F01E
:103DB800E6FAC3B22372022B00D870BD29463046FA
:103DC80003F08AFF022841D9FC2804D8237A03FB90
:103DD80000F000122072237A022BEED949222946DC
:103DE800304603F0CCFA00B260800028E5D04D22BE
:103DF8002946304603F0C3FA02462946304603F006
:103E0800D9FB20804A222946304603F0B8FA00B28E
:103E1800A080F0B94C222946304603F0B0FA0038A9
:103E280018BF0120637A60F382036372DBB260F328
:103E3800C3036372002DC0D068222946304603F0C0
:103E48009EFA637A60F301036372B6E70023237274
:103E5800B3E74B222946304603F091FAE080D9E7D0
:103E680070B506460D461446502203F088FA00B293
:103E7800608000B970BD53222946304603F07FFAAE
:103E8800C3B22373022BF5D92946304603F024FF29
:103E9800022832D9FC2804D8237B03FB00F0001247
:103EA8002073237B022BE5D952222946304603F0A2
:103EB80066FA02462946304603F07CFB20805422ED
:103EC8002946304603F05BFAA06051222946304665
:103ED80003F055FA003818BF0120637B60F38203B2
:103EE8006373002DC6D068222946304603F047FA8E
:103EF800637B60F301036373BCE700232373B9E7B3
:103F0800F8B505460E46402203F039FA04B2E4B982
:103F180035223146284603F032FA07B2002F47D13E
:103F280069223146284603F02AFA07B26A22314646
:103F3800284603F024FA00B2B842B8BF3846002831
:103F480001DD204404B22046F8BD4522314628460A
:103F580003F015FAC0B2022801D80024D8E704EB10
:103F6800D4777F100137BFB243223146284603F089
:103F780006FA17FA80F4A4B241223146284603F023
:103F8800FEF907B242223146284603F0F8F903B297
:103F9800002BB8BF5B429BB2002FB8BF7F42BFB2B5
:103FA800BB422CBFE418E41924B224EAE474AFE756
:103FB80037223146284603F0E2F9C0B20228AFD9C9
:103FC80038223146284603F0DAF907FA80F0A04291
:103FD800B8BF204604B2A3E738B504460D464821C9
:103FE8001CF01CF8256038BD836813B1B3F91600BE
:103FF80070470020704730B583B00446FFF7F4FFE0
:1040080005460023ADF806300DF1060213212046BF
:10401800FEF700F9BDF90630AB420AD1A36863B1D7
:10402800BDF80620DA82BDF90630AB4211D103B0E3
:1040380030BD204600F0AFFDF0E7BDF90630002B9B
:10404800F1D02046FFF756FBA368BDF80620DA82B8
:10405800E9E7204600F09FFDE9E7836813B1987E01
:1040680080097047002070472DE9F04383B004466B
:104078000F4690466E22002103F081F906460FFA9A
:1040880080F96D220021204603F079F905B2B9F1D3
:10409800000F02D1B5F5807F37D06F22002120466E
:1040A80003F06DF9ADF8040070220021204603F0FA
:1040B80066F903B2ADF80630BDF9042002F4C04138
:1040C800B1F5005F24D003F4C042B2F5005F3AD0E6
:1040D800A38ABDF804201344ADF80430E38ABDF880
:1040E80006201344ADF80630B8F1000F07D0764229
:1040F8000FFA86F94FF4803393FBF5F31DB201AB49
:104108002A46494638461BF015F803B0BDE8F08347
:1041180022F4C042B2F5FA6FD5DCB2F57A7F01DD40
:10412800C2F57A72218BA08A091A89B2013109B2C3
:1041380001FB02F2114981FB0201D217C2EB6112A5
:10414800ADF80420BFE723F4C043B3F5FA6FBFDC32
:10415800B3F57A7F01DDC3F57A73628BE18A521A6F
:1041680092B2013212B202FB03F3044A82FB031239
:10417800DB17C3EB6213ADF80630A9E71F85EB51D7
:1041880030B583B005460C46002301AA072102F08A
:1041980007FF012807D020B900222146284603F04E
:1041A800EBFD03B030BD019BA342F5D1F3E730B579
:1041B80083B005460C46002301AA082102F0F0FE50
:1041C800012807D020B900222146284603F0DBFD4C
:1041D80003B030BD019BA342F5D1F3E738B50446DF
:1041E8001546FFF7CDFF29462046FFF7E0FF38BD0B
:1041F80030B583B005460C46002301AA012102F020
:10420800CFFE012807D020B900222146284603F016
:104218009EFD03B030BD019BA342F5D1F3E730B555
:1042280083B005460C46002301AA042102F0B8FE1B
:10423800012807D020B900222146284603F095FD21
:1042480003B030BD019BA342F5D1F3E738B504466E
:104258001546FFF7CDFF29462046FFF7E0FF38BD9A
:1042680038B504460A49FEF7C6FF10B100252846AE
:1042780038BD0546204603F0E1FD0028F7D00A22A4
:10428800002103F07CF880B20028F0D00125EEE789
:104298000100060008B590F8222042F0010280F8DB
:1042A800222003F0CFFD90F8222042F0040280F88B
:1042B800222003F0CFFD406808B11DF050F808BD7A
:1042C80010B50446002289B203F0AAFD2046FFF784
:1042D800E1FF10BD70B505460C460D4A1368013361
:1042E80013600C4ED90030681BF0FAFC306068B1DE
:1042F8000346074A106800F10052013A43F8325069
:10430800044B1B6803EBC2035C6070BDFEE700BF93
:10431800FC6500208C69002070B5044615461E46D1
:10432800002203F037FD324629462046FFF756FFA4
:1043380070BDB0F914300B80B0F916304B80B0F96D
:1043480018308B80B0F91A30CB80704738B50446E6
:1043580003F074FDD0B10546A48A838AE41AA4B296
:1043680001F0AEFB14FA80F4A4B212220021284610
:1043780003F005F880B2241AA4B23222002128469C
:1043880002F0FDFF80B2201A00B238BDB4F9140063
:10439800FBE738B5044603F051FDD0B10546E48A81
:1043A800C38AE41AA4B201F093FB14FA80F4A4B20D
:1043B80010220021284602F0E2FF80B2241AA4B29B
:1043C80032220021284602F0DAFF80B2201A00B219
:1043D80038BDB4F91600FBE7038B828A981A80B2BD
:1043E800013000B27047438BC28A981A80B20130FC
:1043F80000B2704738B50546FFF7CBFF84B22846B0
:10440800FFF7F1FF14FA80F000B238BDF8B50546A1
:104418001222002102F0B3FF07461322002128468A
:1044280002F0ADFF064632220021284602F0A7FF1F
:1044380004462846FFF7D0FF83B2DB1B9BB29B1BC9
:104448009BB26400A4B2181B00B2F8BDF8B50546CB
:104458001022002102F093FF07461122002128466E
:1044680002F08DFF064632220021284602F087FF1F
:1044780004462846FFF7B7FF83B2DB1B9BB29B1BA2
:104488009BB26400A4B2181B00B2F8BD70B5064612
:104498000C463222002102F072FF054621463046C2
:1044A800FFF747FF694209B20A4620461AF07AFB2D
:1044B80012220021304602F062FF238813FA80F0AE
:1044C800208013220021304602F059FF80B2A388D1
:1044D8001B1AA38010220021304602F050FF638887
:1044E80013FA80F0608011220021304602F047FF65
:1044F80080B2E3881B1AE38070BD00B583B0002347
:10450800ADF804304EF20103ADF8063001AA2C21B3
:10451800FDF780FEBDF9040003B05DF804FB000060
:104528002DE9F04F83B005460022114601F084FDC5
:1045380032220021284602F022FF044613220021DD
:10454800284602F01CFFA4B214FA80F01FFA80FA81
:1045580003B2019312220021284602F010FF14FA38
:1045680080F01FFA80FB03B200932846FFF7C5FFCF
:104578001BFA80F91AFA89F90FFA89F9284603F023
:104588009CFC804616220021284602F0F8FEC0B2A4
:1045980001284CD00024584F6BE0092200213046F6
:1045A80002F0EDFEC0B2082805D840F24913C34016
:1045B80013F0010F14D107220021304602F0DFFE6C
:1045C80000B2B8B9338BB28A9B1A9BB201339AB244
:1045D800019901FA83F39F420CDC524417B209E0B7
:1045E800B5F91830B6F914209B1A0133BB42B8BF8D
:1045F8003B461FB2013444451CD2AB681B6853F8D4
:1046080024603E493046FEF7F6FD0028F2D13046D8
:10461800FFF726FE0028C0D0B5F91830B6F91420E7
:104628009B1A0133BB42B8BF3B461FB2E2E70024E6
:10463800314FE0E7304B9F4253D0BB440FFA8BF722
:104648004FE009220021304602F099FEC0B2072847
:104658002BD89323C34013F0010F26D0B6F9183096
:10466800B5F914209B1A0133BB42B8BF3B461FB2B1
:10467800013444452FD2AB681B6853F824601F49A6
:104688003046FEF7B8FD0028F2D13046FFF7E8FDC6
:104698000028D6D0B6F91830B5F914209B1A013382
:1046A800BB42B8BF3B461FB2E2E7082200213046B2
:1046B80002F065FE00B20028DAD1338BB28A9B1A69
:1046C8009BB201339AB2009901FA83F39F42CFDC7F
:1046D8005A4417B2CCE7084B9F4202D0BA440FFAAB
:1046E8008AF7054B9F4202D0B945B8BFB94648463C
:1046F80003B0BDE8F08F00BF01E0FFFF0100040038
:1047080000B583B04EF20103ADF804300023ADF8D4
:10471800063001AA2C21FDF77DFDBDF9060003B086
:104728005DF804FB2DE9F04F83B0064600221146E0
:1047380001F096FC32220021304602F020FE0446A9
:1047480010220021304602F01AFEA4B214FA80F0BA
:104758001FFA80FB03B2019311220021304602F0B8
:104768000EFE14FA80FA1FFA8AFA3046FFF7C8FFDD
:104778001BFA80F91AFA89F90FFA89F9304603F019
:104788009CFB07460024DFF8B48013E009220021CF
:10479800284602F0F4FDC0B2032828D8B5F91A302B
:1047A800B6F916209B1A01334345B8BF43460FFAA2
:1047B80083F80134BC4231D2B3681B6853F82450E3
:1047C8001D492846FEF717FD0028F2D12846FFF7B5
:1047D80047FD0028DAD0B5F91A30B6F916209B1A29
:1047E80001334345B8BF43460FFA83F8E1E708228F
:1047F8000021284602F0C3FD00B20028D9D16B8BF6
:10480800EA8A9B1A9BB201339AB2019901FA83F39F
:104818009845CEDC5A440FFA82F8CAE7074B984508
:1048280005D0C2440FFA8AFAD145B8BFD1464846E6
:1048380003B0BDE8F08F00BF0100040001E0FFFFF6
:1048480038B504460122002102F099FD05B2042280
:104858000021204602F093FD42F2D1739D4202D01E
:1048680000B2984204D12046FFF714FD012038BD5C
:104878000020FCE72DE9F04780468A4691461F460E
:1048880003F01BFB0646002400E00134B44223D2A7
:10489800D8F808301D6855F8245037B14FF48021F6
:1048A8002846FEF7A2FC0028EFD11FFA8AF2AB8A4D
:1048B8001344AB821FFA89F3E98A1944E982298BE8
:1048C8000A442A836A8B13446B8300234A46514661
:1048D8002846FFF7CFFFD8E7BDE8F08780B32DE97A
:1048E800F0410F4615461C468046FFF7B6FB0646C4
:1048F8009CB11DB9022E0AD0BDE8F081404603F0F4
:104908009DFA23462A463946FFF7E8FFF2E7224692
:1049180039464046FFF7A8FBEEE702280AD0002DEB
:10492800EAD0404603F08AFA23462A463946FFF77A
:10493800D5FFE1E7224639464046FFF795FBEEE70B
:104948007047F0B585B005460C4616461F46B1F9C6
:104958000010ADF80010B4F902E0ADF802E0ADF8CF
:104968000410B4F90610ADF80610B4F904C0ADF897
:1049780008C0ADF80AE0ADF80CC0ADF80E106946F5
:10498800FFF7ACFF3B46324601A92846FFF7A6FFD2
:104998003B46324602A92846FFF7A0FF3B4632466F
:1049A80003A92846FFF79AFFBDF90C30BDF9085056
:1049B8001946AB42A8BF2946BDF90420BDF900003D
:1049C80016468242A8BF0646B142A8BF314621809A
:1049D800AB42B8BF2B468242B8BF02469342B8BF2B
:1049E8001346A380BDF90E30BDF90A501946AB42F3
:1049F800A8BF2946BDF90620BDF902001646824225
:104A0800A8BF0646B142A8BF31466180AB42B8BFD5
:104A18002B468242B8BF02469342B8BF1346E38092
:104A28000522114620461AF0BDF805B0F0BD2DE963
:104A3800F04182B004460E460121FEF7D6FB20B1B4
:104A48000027384602B0BDE8F0810746204603F04B
:104A5800F9F9054603F0FEF98046FDF7ADFA8542FF
:104A68000ED04046FDF7B4FA854209D04046FDF71E
:104A7800BBFA854204D04046FDF7C2FA8542E0D130
:104A88004FF400212046FEF7B6FB28BB2046FFF76F
:104A9800ABFAB4F91410ADF80010B4F91620ADF85B
:104AA8000220B4F91830ADF80430B4F91A50ADF852
:104AB800065080B2091AADF80010121AADF802209B
:104AC8000344ADF804302844ADF806006A46314680
:104AD80030461AF085F850B10023012231462046AD
:104AE800FFF72FFF204603F0A9F9044605E0074623
:104AF800A7E7204603F0A2F9044614B30121204693
:104B0800FEF773FB00289CD14FF400212046FEF7E6
:104B180072FB0028EDD16D4604F1140393E80300FD
:104B280085E803000023012229462046FFF709FFF4
:104B38002A46314630461AF053F80028D9D107469C
:104B48007FE701277DE730B583B005460C4603F0C3
:104B580081F9FDF76AFA08B903B030BDB4F900303D
:104B6800ADF80030B4F90230ADF80230B4F90430D1
:104B7800ADF80430B4F90630ADF806306946284679
:104B8800FFF755FF0028E7D0284603F063F9694688
:104B980004F0A4FBE0E710B582B00446FFF724FA5E
:104BA800B4F914C0ADF800C0B4F91610ADF802108D
:104BB800B4F91820ADF80420B4F91AE0ADF806E00D
:104BC80083B2ACEB030CADF800C0C91AADF8021003
:104BD8001A44ADF804207344ADF8063069462046FF
:104BE800FFF7B1FF02B010BD2DE9F04F87B00446C2
:104BF8000D46164647686FB312220021384602F068
:104C0800BEFB82460FFA80FB10220021384602F0D4
:104C1800B6FB81460FFA80F84FF480212046FEF754
:104C2800E4FA00283ED0BB8A534415FA83F31DB238
:104C3800B7F81680C84416FA88F80FFA88F83222AE
:104C48000021384602F09BFB80B205442DB200EBF0
:104C5800080216B2A38AED1A1FFA85F82DB2ADF82C
:104C68001450E38AF21A1FFA82F916B2ADF81660E8
:104C78000DB9002E5AD02046FFF78DFF03A9204614
:104C8800FFF757FB2FB301A93846FFF7FFFB0022B8
:104C980001A903A81AF0D8F88246E0B9384601F00D
:104CA800D5FF18E0B7F914309B44384600F008FFE8
:104CB800ABEB000BAB440FFA8BF5B7F91630984401
:104CC800384600F005FFA8EB0008B0440FFA88F852
:104CD800B5E74FF0000AA38A4344A382E38A4B4412
:104CE800E382238B9844A4F81880638B9944A4F832
:104CF8001A900023324629462046FFF7BBFD27B10C
:104D0800224622213846FDF785FA2046FFF743FF61
:104D180067B1002201A904F114001AF095F8BAF15C
:104D2800000F00D110B1384601F090FF07B0BDE880
:104D3800F08F00002DE9F04F85B00446FFF790FA98
:104D480010B105B0BDE8F08F204603F077F80746AC
:104D580007220021204602F012FB814605B20822F4
:104D68000021204602F00BFB804606B2002F4ED0F1
:104D78003846FFF74BFB00903846FFF767FB01907A
:104D880009F4C049B9F5005F47D008F4C048B8F540
:104D9800005F57D06B220021204602F0F0FA8146CE
:104DA8000FFA80FB6C220021204602F0E8FA8046C8
:104DB8000FFA80FA2046FFF70FFB02902046FFF714
:104DC80012FB039009F4C049B9F5005F4FD008F40D
:104DD800C048B8F5005F60D05D441FFA85F82DB271
:104DE80056441FFA86F936B209220021204602F0FD
:104DF800C6FA10F0FF0066D001286CD002380728E8
:104E08007DD8DFE800F07082969DB089BDD032462B
:104E180029462046FFF7E8FE93E725F4C043B3F59B
:104E2800FA6FB2DCB3F57A7F01DDC3F57A73009AC5
:104E380002FB03F3684A82FB0312DB17C3EB62131E
:104E48001DB2A2E726F4C043B3F5FA6FA2DCB3F5AE
:104E58007A7F01DDC3F57A73019A02FB03F35E4A98
:104E680082FB0312DB17C3EB62131EB292E72BF42B
:104E7800C043B3F5FA6FAADCB3F57A7F01DDC3F559
:104E88007A73029A02FB03F3534A82FB0312DB177D
:104E9800C3EB62130FFA83FB99E72AF4C043B3F517
:104EA800FA6F99DCB3F57A7F01DDC3F57A73039A5B
:104EB80002FB03F3484A82FB0312DB17C3EB6213BE
:104EC8000FFA83FA88E716220021384602F057FACB
:104ED800C0B2012805D0324629462046FFF784FE95
:104EE8002FE703208AE7009B03EBD373029A02EBB8
:104EF800D2756D10C5EB630518FA85F52DB23246EB
:104F080029462046FFF770FE1BE7009B029A9D1A70
:104F180018FA85F52DB2F2E7019B03EBD373039AD8
:104F280002EBD2767610C6EB630619FA86F636B22D
:104F3800E5E7019B039A9E1A19FA86F636B2DEE770
:104F4800009B03EBD373029A02EBD2756D10C5EB8D
:104F5800630518FA85F52DB2019B039A9E1A19FA72
:104F680086F636B2CBE7009B029A9D1A18FA85F5A9
:104F78002DB2019B039A9E1A19FA86F636B2BEE73D
:104F8800009B029A9D1A18FA85F52DB2019B03EB36
:104F9800D373039A02EBD2767610C6EB630619FA3E
:104FA80086F636B2ABE7009B03EBD372029B03EBAA
:104FB800D3735B10C3EB620318FA83F31DB2019B32
:104FC80003EBD372039B03EBD3735B10C3EB620356
:104FD80019FA83F31EB292E71F85EB5110B582B020
:104FE8000446FFF701F8B4F914C0ADF800C0B4F9ED
:104FF8001610ADF80210B4F91820ADF80420B4F971
:105008001AE0ADF806E083B2ACEB030CADF800C0D3
:10501800C91AADF802101A44ADF804207344ADF86B
:10502800063069462046FFF702FD02B010BD38B5CC
:1050380005460C46FEF75EFBAB689C8238BD10B592
:10504800B0F914200A80B0F916304B80B0F918E096
:10505800A1F804E0B0F91AC0A1F806C0846874B1D8
:10506800A48A121B0A808268928A72448A808268A3
:10507800928A9B1A4B8083689B8A6344CB8010BDBD
:1050880000B58446084601F4C041B1F5005F0CD074
:1050980002F4C041B1F5005F1BD06245A8BF62466B
:1050A8009042B8BF10465DF804FB20F4C041B1F54A
:1050B800FA6FEDDCB1F57A7F01DDC1F57A7103FB9A
:1050C80001F10E4880FB01E0C917C1EB601108B27D
:1050D800DEE722F4C041B1F5FA6FDEDCB1F57A7F84
:1050E80001DDC1F57A7101FB03F3044A82FB031267
:1050F800DB17C3EB62131AB2CFE700BF1F85EB5172
:1051080000B58446084601F4C041B1F5005F0CD0F3
:1051180002F4C041B1F5005F1BD06245A8BF6246EA
:105128009042B8BF10465DF804FB20F4C041B1F5C9
:10513800FA6FEDDCB1F57A7F01DDC1F57A7103FB19
:1051480001F10E4880FB01E0C917C1EB601108B2FC
:10515800DEE722F4C041B1F5FA6FDEDCB1F57A7F03
:1051680001DDC1F57A7101FB03F3044A82FB0312E6
:10517800DB17C3EB62131AB2CFE700BF1F85EB51F1
:1051880090F8233003F00C030C2B00F098812DE9E4
:10519800F04F87B0044602F051FE0546002800F0A3
:1051A8009081204600F0FCFC009094F8233013F026
:1051B800080F78D02046FFF70FF906464FF0000990
:1051C800204600F08DFC074694F8233013F0040FB6
:1051D80000F0E7802046FFF706F980464FF0000A06
:1051E800B9F1000F02D1BAF1000F05D000233A46F9
:1051F8000099204600F048FF2046FFF7EDF8B0423E
:1052080005D12046FFF7EFF8404500F05C812046C5
:10521800FFF7C1FC04A92046FFF78BF802A928462E
:10522800FFF734F9002202A904A819F00DFE074679
:10523800002800F03A81E08A404480B20138608357
:1052480016220021204602F09AF8C0B2012800F088
:105258003081A38A33449BB2013B238304AA2921CA
:105268002046FCF7D7FF224622212846FCF7D2FF2A
:105278002046FFF790FC94F8223043F0020384F8AC
:105288002230002202A904F1140019F0DDFD07B94B
:1052980010B1284601F0DAFC2046FEF7ACFE0120EA
:1052A80007B0BDE8F08F01220021204602F067F820
:1052B80006B242F2D1794E4514BF4FF000094FF0C3
:1052C800010900F4C040B0F5005F36D04FF0000887
:1052D8002846FFF79BF8074642F2D1739E4237D023
:1052E800B8F1000F15D095F8233013F0080F34D01B
:1052F80026F4C04212B2B2F57A7F01DDC2F57A72A5
:1053080007FB02F2714B83FB0213D617C6EB631639
:1053180036B202220021204602F031F80FFA80F856
:1053280003220021204602F02AF83B4602B24146F9
:105338003046FFF7A5FE064642E726F4C043B3F51C
:10534800FA6F02DD4FF00008C2E74FF00108BFE72F
:105358002046FFF7E5F80646DBE70122002128464C
:1053680002F00DF800B242F2D1739842C0D1322255
:105378000021204602F003F806460FFA80F81222B0
:105388000021204601F0FBFF16FA80F6B6B2132280
:105398000021204601F0F3FF08FA80F31E4436B2DC
:1053A800B7E704220021204601F0E9FF0FFA80F850
:1053B80042F2D17AD04514BF4FF0000A4FF0010AEB
:1053C80000F4C040B0F5005F39D04FF0000B28461C
:1053D800FFF73CF8019042F2D17398453AD0BBF1FF
:1053E800000F18D095F8233013F0040F37D028F4A5
:1053F800C0431BB2B3F57A7F01DDC3F57A73019A16
:1054080002FB03F3314A82FB03124FEAE378C8EB4D
:1054180062180FFA88F805220021204601F0AFFF34
:105428000FFA80FB06220021204601F0A8FF019B0D
:1054380002B259464046FFF763FE8046D0E628F49C
:10544800C043B3F5FA6F02DD4FF0000BBFE74FF032
:10545800010BBCE72046FFF765F98046DBE704222D
:105468000021284601F08BFF00B242F2D173984226
:10547800BDD132220021204601F081FF80460FFA7B
:1054880080FB10220021204601F079FF18FA80F3F2
:105498001FFA83F811220021204601F070FF0BFA51
:1054A80080F398440FFA88F8B5E7284601F0CEFB58
:1054B800C1E6238B9B1B9BB20133A382CEE600205F
:1054C80070470020ECE60020EAE600BF1F85EB519C
:1054D80070B5044602F0F1FC06460025B54207D235
:1054E800A3681B6853F82500FFF7F2FF0135F5E7BD
:1054F80094F8223013F0010F05D194F8223013F0FC
:10550800020F27D170BD94F822306FF3000384F89E
:1055180022302046FFF734FE2046FFF70BFC002E12
:10552800EBD00A220021204601F029FF80B2002892
:10553800E3D00E4B1B688342DFD300F100500138E3
:105548000B4B1B6803EBC00253F830305168204600
:105558009847D2E794F822306FF3410384F8223059
:105568000021204601F095FBCCE700BFFC65002038
:105578008C6900200E4B1B7803B1704710B50C4B9B
:1055880001221A7002F05EFC044608E094F822300A
:105598006FF3820384F822302046FFF799FF94F8CE
:1055A800223013F0040FF1D1014B00221A7010BD04
:1055B800006600202DE9F04F85B080460D46019227
:1055C8000293FFF7D7FF002D54D0404602F036FC77
:1055D80007463222002101F0D2FE044612220021A1
:1055E800384601F0CCFEA4B214FA80FA0FFA8AFA0F
:1055F80010220021384601F0C2FE14FA80F90FFA91
:1056080089F932220021284601F0B9FE8346122288
:105618000021284601F0B3FE1FFA8BFB1BFA80F429
:10562800A3B2039324B210220021284601F0A7FE5A
:105638001BFA80F61FFA86FB36B2019BFBB1019B71
:10564800013B142B5AD8DFE813F0220080009300A6
:10565800A100AE00CD00E700F9005C0018012001B0
:10566800360147014D016101700178018E019F01EA
:10567800A501B901404602F0E1FB0546A5E716225F
:105688000021284601F07BFEC0B2012870D0162206
:105698000021384601F073FEC0B2012800F09D8158
:1056A800B5F91430029A1A44B7F91430A2EB030B77
:1056B800384600F075FA8344ABEB0A0AA2440FFAA5
:1056C8008AFAB5F91630BDF938401C44B7F91630D6
:1056D800E41A384600F004FA0444A4EB09043444FC
:1056E80024B200220121404602F054FB22465146D2
:1056F8004046FEF773FD05B0BDE8F08F002634463E
:10570800C5E72846FEF782FE04464046FEF764FEDB
:1057180004EBD47300EBD0704410C4EB6304039B18
:1057280013FA84F424B22846FEF790FE0646404653
:10573800FEF759FE06EBD67300EBD0704610C6EBA9
:1057480063061BFA86F636B2A1E72846FEF75EFE28
:1057580004464046FEF740FE04EBD47300EBD070DD
:105768004410C4EB6304039B13FA84F424B28EE759
:105778002846FEF74BFE84B24046FEF72DFE80B267
:10578800241A039B13FA84F424B280E72846FEF710
:105798005DFE86B24046FEF726FE80B2361A1BFA38
:1057A80086F636B273E72846FEF730FE04464046D2
:1057B800FEF712FE04EBD47300EBD0704410C4EB78
:1057C8006304039B13FA84F424B22846FEF73EFED2
:1057D80086B24046FEF707FE80B2361A1BFA86F6F6
:1057E80036B254E72846FEF711FE84B24046FEF76B
:1057F800F3FD80B2241A039B13FA84F424B22846DA
:10580800FEF724FE86B24046FEF7EDFD80B2361A5A
:105818001BFA86F636B23AE72846FEF717FE064622
:105828004046FEF7E0FD06EBD67300EBD07046105D
:10583800C6EB63061BFA86F636B228E72846FEF75B
:10584800E5FD84B24046FEF7C7FD80B2241A039BEB
:1058580013FA84F424B22846FEF7F8FD06464046BB
:10586800FEF7C1FD06EBD67300EBD0704610C6EB11
:1058780063061BFA86F636B209E74046FEF7B3FD23
:1058880086B2764236B2002401E72846FEF7A4FD28
:1058980004464046FEF7A0FD04EBD47300EBD0703D
:1058A8004410C4EB630424B24046FEF79CFD86B264
:1058B800764236B2EBE62846FEF78EFD84B24046C5
:1058C800FEF78AFD80B2241A24B24046FEF78BFD0B
:1058D80086B2764236B2DAE62846FEF784FD0646F8
:1058E8000024D4E62846FEF777FD04464046FEF736
:1058F80073FD04EBD47300EBD0704410C4EB630465
:1059080024B22846FEF76FFD0646C0E62846FEF795
:1059180063FD84B24046FEF75FFD80B2241A24B2CC
:105928002846FEF760FD0646B1E64046FEF754FD00
:1059380084B2644224B20026A9E64046FEF74CFD34
:1059480084B2644224B22846FEF74DFD064640461E
:10595800FEF749FD06EBD67600EBD0704010C0EBA1
:10596800660636B293E64046FEF736FD84B26442D8
:1059780024B22846FEF737FD86B24046FEF733FDCF
:1059880080B2361A36B282E62846FEF725FD04466E
:1059980000267CE62846FEF71FFD04462846FEF74B
:1059A80022FD06464046FEF71EFD06EBD67600EBC6
:1059B800D0704010C0EB660636B268E62846FEF79F
:1059C8000BFD04462846FEF70EFD86B24046FEF75C
:1059D8000AFD80B2361A36B259E6B5F914B0029B00
:1059E8005B449B46B7F91430ABEB030B384600F029
:1059F80049F98344ABEB0A0BA3440FFA8BFA60E630
:105A080008B500220A210068FCF704FC08BD38B577
:105A180004460D46FDF76EFEA268137E03F00303ED
:105A2800AB4206D0137E65F3010313762046FFF7D9
:105A3800B2F838BD38B505460C46FDF75BFEAA68D6
:105A4800537E03F00F03A34203D0537E64F3030392
:105A5800537638BD38B505460C46FDF74BFEAB68A6
:105A68001A7E64F383021A7638BD38B505460C46AB
:105A7800FDF740FEAB681A7E64F305121A7638BD4E
:105A880083681BB1187E00F003007047032070473D
:105A980083681BB1587E00F00F0070470F207047D5
:105AA80083681BB1187EC0F38100704700207047DF
:105AB80083681BB1187EC0F301107047002070473F
:105AC80083681BB1188A404200B2704700207047B3
